:100000000C94E2040C9457300C941A050C941A05C5
:100010000C941A050C941A050C941A050C941A05E4
:100020000C941A050C941A050C94FA260C94B62616
:100030000C94F7270C941A050C941A050C941A05C5
:100040000C941A050C941A050C941A050C941A05B4
:100050000C941A050C94D3270C941A050C941A05C9
:100060000C941A050C941A050C941A050C941A0594
:100070000C941A050C941A050C941A050C941A0584
:100080000C941A050C941A050C941A050C941A0574
:100090000C941A050C941A050C941A050C941A0564
:1000A0000C941A050C941A050C941A050501098084
:1000B000A101850319012AB700150126B700950192
:1000C00075108100C0050C0901A101850419012AE0
:1000D000A002150126A002950175108100C00660DE
:1000E000FF0961A1010962150026FF00952075082E
:1000F00081020963150026FF00952075089102C052
:1001000005010906A101050719E029E715002501E8
:10011000950875018102950175088101050719008F
:1001200029FF150026FF00950675088100050819AE
:10013000012905950575019102950175039101C08D
:1001400000000000000000000000000000000000AF
:10015000000000000000000000000000000000009F
:10016000000000007E0F00D4FFFFFFC700000078F2
:1001700000000000000000002A2B28000000000002
:100180000000000000000000000000290000000046
:100190002C1E3420212224342627252E362D3738B4
:1001A000271E1F202122232425263333362E3738BD
:1001B0001F0405060708090A0B0C0D0E0F1011127B
:1001C000131415161718191A1B1C1D2F3130232D47
:1001D000350405060708090A0B0C0D0E0F10111245
:1001E000131415161718191A1B1C1D2F3130354CF6
:1001F00000047F3F1F643214643214783C1E1E14C6
:100200000A05FD377A585A000004E6D6B4460200C3
:10021000210116000000742FE5A3E00D7B01D95DDC
:10022000003D8889C65436C3174FE4E16D1E89AA84
:10023000185F029FEBA372110EB115997FFA2492F9
:10024000CB16918AB8D58144EA15DAB9CA2D95AC96
:100250006F836A62E816E67589AD85F05024B43B79
:100260008E3FAF960FC873936C7B4BBDB625776EF0
:10027000D8D80010F1C171148CBCDB90A175A4D842
:10028000CCA74AC7DA53D95B5C3A0D88304C6095ED
:10029000CE14160AA05D6983BA9D0F9033AB761811
:1002A000E5463C4DFFE35F75AC8E8CF1F2E42EB178
:1002B000C7BA283732CF51EDD6080C25B3707098E5
:1002C00048721E0DADE38F44529C5D571E9CC13099
:1002D000AF8B67EF0B08FAF89B12C735EB06C673B6
:1002E000015F01DC41EE8464DFFC11137BB8A521C2
:1002F000DF23768764ED94B0FCF10AFD64E04415D9
:10030000E6D93F4BF4CCFB617D78D16F57D284DACC
:1003100060FE7E168EE88995431C3920DC961E8B84
:1003200011685947A02D9A5083A56696C013895528
:10033000A5BD575B210E92D6D849E317B669C28690
:10034000A21C765E0CF6023A069DDB350874142E6C
:1003500024547635E1C41873E18D3F82BBEF0F253D
:100360001D3AD61BCDA1E9098AB6713780FCDAADFA
:10037000FD37968887D317F08C2E8FEC5B3BE8D443
:10038000467C81E62D7862259D774B2FED4030E34A
:100390006279BBB1B09633B548E8A2F4229B81A440
:1003A0005ABE7DA3F3F45F33A0E95C1AFC7E85811D
:1003B000C82B7EE65029F52E470D41E2DF246F89D8
:1003C0007953C8C7D0BE2B9C54DAF1DFB95DD42E67
:1003D0007A3E9B3942AF865A1E56FDD7555E05269A
:1003E0002AB6FAE8BBF3AC03019181C4C854B13119
:1003F000E0919041CDAE6E717C0000000000622360
:10040000BEFF5D0FCCDB0001F503FC1A00001EA946
:10041000AB1CB1C467FB020000000004595A000184
:1004200001010101010101010202020202020202B4
:100430000203030303030303030404040404040486
:10044000050505050506060606060707070707084A
:10045000080808090909090A0A0A0B0B0B0C0C0CFD
:100460000D0D0D0E0E0E0F0F0F1010111111121297
:1004700013131414151516161717181819191A1A14
:100480001B1B1C1D1D1E1E1F202021222223242475
:10049000252626272829292A2B2C2D2D2E2F3031B1
:1004A0003232333435363738393A3B3C3D3E3F40C3
:1004B0004142434445464748494A4C4D4E4F5051AE
:1004C0005354555658595A5B5D5E5F616264656668
:1004D00068696B6C6D6F7072737577787A7B7D7EEF
:1004E0008082838587888A8C8E8F91939596989A3F
:1004F0009C9EA0A2A3A5A7A9ABADAFB1B3B5B7BA57
:10050000BCBEC0C2C4C6C9CBCDCFD1D4D6D8DBDD2A
:10051000DFE2E4E7E9EBEEF0F3F5F8FAFDFFFFAA1E
:100520007F55400102030C0D0E0F00070605040B5A
:100530000A09082223252628292A2C2D2F30323378
:100540003536383A3B3D3E4042434547494A4C4E9A
:100550005051535557595A5C5E6062646668696BC6
:100560006D6F71737577797B7D7F81838587898ACC
:100570008C8E90929496989A9C9E9FA1A3A5A7A8D2
:10058000AAACAEAFB1B3B4B6B8B9BBBCBEBFC1C202
:10059000C3C5C6C7C9CACBCCCDCED0D1D2D2D3D495
:1005A000D5D6D7D7D8D9D9DADADBDBDBDCDCDCDCB3
:1005B000DCDDDDDDDDDCDCDCDCDCDBDBDBDADAD981
:1005C000D9D8D7D7D6D5D4D3D2D2D1D0CECDCCCB03
:1005D000CAC9C7C6C5C3C2C1BFBEBCBBB9B8B6B421
:1005E000B3B1AFAEACAAA8A7A5A3A19F9E9C9A98B1
:1005F000969492908E8C8A89878583817F7D7B7982
:10060000777573716F6D6B6968666462605E5C5A62
:100610005957555351504E4C4A4947454342403E25
:100620003D3B3A3836353332302F2D2C2A292826B7
:100630002523226800000035001E001F0020002135
:1006400000220023000000690000002B0014001AA3
:1006500000080015001700000000006A00000039C3
:100660000004001600070009000A00000000006BEB
:10067000000000E10064001D001B000600190005D9
:100680000000006C000000E000E200E30001512CDB
:10069000002C00000000002900000000003A003B90
:1006A000003C003D003E003F0000002400250026E5
:1006B0000027002D002E004C002A0049004B001C92
:1006C0000018000C00120013002F00300031004C05
:1006D000004E000B000D000E000F003300340032FE
:1006E0000028004A004D0011001000360037003885
:1006F000000000E50000005200000001512C00E65F
:1007000000E70000000000E400500051004F0040EE
:1007100000410000004200430044004500460047FD
:10072000004800C25C00000100010001000100015E
:1007300000010001000000C35C0000010001000195
:1007400000010001000100000000000100000001A4
:100750000001000100010001000100000000000193
:100760000000000100010001000100010001000182
:100770000000000100000001000100010001000173
:1007800000010000000000C05C00000000C55CC665
:100790005CC75CC85CC95CCA5C0000010001000168
:1007A0000001000100010001000100010001000141
:1007B0000001000100010001000100010001000131
:1007C0000001000100010001000100010001000121
:1007D0000001000100010001000100010001000111
:1007E0000000000100000001000000010001000104
:1007F00000010000000000010001000100010001F3
:1008000000010000000100010001000100010001E1
:1008100000010001000000010001000100010001D1
:1008200000010001000000010000000100010001C2
:1008300000010001000100000000000100000001B3
:1008400000010001000100010001000000000001A2
:100850000000000100010001000100010001000191
:100860000000000100000001000100010001000182
:100870000001000000000001000000000001000174
:100880000001000100010001000000010001000161
:100890000001000100010001000100010001000150
:1008A0000001000100010001000100010001000140
:1008B0000001000100010001000100010001000130
:1008C0000001000100010001000100010001000120
:1008D0000000000100000001000000010001000113
:1008E0000001000000000001000100010001000102
:1008F00000010000000100010001000100010001F1
:1009000000010009025B00030100A0FA09040000D5
:100910000103010100092111010001224000070526
:1009200081030800010904010002030000000921FD
:1009300011010001222200070582032000010705A2
:100940000303200001090402000103000000092143
:100950001101000122320007058403200001120169
:1009600000020000000810CB6A120001010203011E
:100970001C037600690061006C003A0066003600D6
:100980003400630032006200330063000000200383
:100990004B0042004F002D00350030003000300089
:1009A00020005200650076002E002000310000007B
:1009B0000E034B0065006500620069006F000000D7
:1009C0000403090411241FBECFEFDAE0DEBFCDBF60
:1009D00004B603FE18C08091950390919603A091F0
:1009E0009703B09198038730904BA740B04B59F4D0
:1009F0001092950310929603109297031092980309
:100A0000E0E0F8E3099511E0A0E0B1E0E8E5F5E603
:100A100002C005900D92AC3FB107D9F723E0ACEFCF
:100A2000B1E001C01D92A539B207E1F70E941E286E
:100A30000C9486320C940000E8EDF0E080818E7F0B
:100A400080831092E2001092DA001092E100A0EE92
:100A5000B0E08C9181608C9380818F77808319BC0A
:100A6000A7EDB0E08C918E7F8C9380818F7E808308
:100A700010927A0308952091E4003091E50095E604
:100A8000A9012091EC00822F817020FF06C0809187
:100A9000E80080FF06C080E008952091E80022FD74
:100AA0001AC080919003882389F0853089F0809165
:100AB000EB0085FD0FC02091E4003091E500421766
:100AC0005307F9F29150E1F684E0089582E0089529
:100AD00083E0089581E00895EF92FF920F931F93B2
:100AE000CF937C018B010E943B05C82F811117C059
:100AF0008091E80085FD0BC08091E8008E7780939F
:100B0000E8000E943B05882399F3C82F08C0F7012D
:100B100081917F018093F1000150110949F78C2FD9
:100B2000CF911F910F91FF90EF900895CF93FC010B
:100B300080919003843001F5C091E900CF7020913D
:100B4000EC00922F917020FD90E8C92B82E08093F9
:100B5000E9008091E80080FF0CC050E040E060E2D6
:100B600070E0CF010E946C058091E8008E77809341
:100B7000E800CF70C093E900CF9108958091880379
:100B800087FF13C08091E80082FF06C08091E800D3
:100B90008B778093E80004C0809190038111F2CF9D
:100BA0000895809190038823D9F38091E80080FF15
:100BB000F8CF8091E8008E77ECCF982F9093E900E2
:100BC000242F762F50E0891731F07091EC0020919E
:100BD000ED005091F00021FD07C09F5F973071F745
:100BE0008093E90081E008953091EB003E7F3093DF
:100BF000EB003091ED003D7F3093ED003091EB0044
:100C000031603093EB007093EC002093ED00509333
:100C1000F0002091EE0027FDE0CF80E00895CF9214
:100C2000DF92EF92FF920F931F93CF93DF93C8ED64
:100C3000D0E088818F7E8883E7EDF0E0808181605D
:100C4000808384E082BF81E080937A0388818E7FF5
:100C5000888302EE10E0F80110821092DA0081EE33
:100C6000C82ED12CF601108288818F7788838881E5
:100C70008068888388818F7D888319BC1092900357
:100C800010928703109286031092850390EEE92E4E
:100C9000F12CF70180818B7F80838881816088833C
:100CA00042E060E080E00E94DD05F60180818E7FF9
:100CB0008083F80180818160808380818860808367
:100CC000F70180818E7F8083888180618883DF91B6
:100CD000CF911F910F91FF90EF90DF90CF900895EB
:100CE000FC0180918E0390918F0386179707A0F0E7
:100CF0006115710529F49091E8009E779093E800C2
:100D000090E06115710551F4911108C08091E800DF
:100D100082FF34C080E00895BC01F2CF809190033F
:100D20008823C1F18530C1F18091E80083FD30C096
:100D30008091E80082FDEACF8091E80080FFE1CF5A
:100D40008091F3002091F200382F6115710519F0A0
:100D50002830310558F091E02830310509F090E055
:100D60002091E8002E772093E800CBCF81918093EB
:100D7000F100615071092F5F3F4FE7CF80919003E1
:100D8000882341F0853041F08091E80083FFBECF99
:100D900081E0089582E0089583E00895089508951C
:100DA000089580917C0308959C014FB7F894809139
:100DB000730390917403A0917503B09176034FBFB4
:100DC000821B930B08952FB7F89460917303709171
:100DD000740380917503909176032FBF08952FB708
:100DE000F8948091730390917403A0917503B0916E
:100DF00076032FBF08952091700330917103281757
:100E0000390771F09093710380937003E0916E0342
:100E1000F0916F03309721F00084F185E02D099463
:100E2000089520916C0330916D032817390771F0F4
:100E300090936D0380936C03E0916E03F0916F03C8
:100E4000309721F00680F781E02D09940895FC0188
:100E5000680F791F8FEF91E32191822728E030E01E
:100E600087FF09C0880F892721503109C9F7E61784
:100E7000F70791F70895880FF7CF8F929F92AF925F
:100E8000BF92EF92FF920F931F93CF93DF93843023
:100E9000B8F5811136C0909180009F7790938000C3
:100EA0002D98A0918600B0918700282F30E00E94F5
:100EB000E23123E030E040E050E00E94AB318901B4
:100EC0009A0180918600909187006CE070E00E940A
:100ED000833160177107D8F0C80169E070E00E94A3
:100EE00083317093890060938800DF91CF911F91C7
:100EF0000F91FF90EF90BF90AF909F908F900895CB
:100F000083E090918000906890938000CACF809198
:100F1000860090918700E0908600F0908700E09135
:100F20008600F0918700C6E0D0E0BE010E948331C8
:100F3000060F171F211D311D4801590185E0880C3E
:100F4000991CAA1CBB1C8A95D1F7C701BE010E943F
:100F500083319F0150E040E0260F371F411D511D96
:100F6000C501B4010E94AB3149015A01E0918600EC
:100F7000F0918700CA01B9010E9473319B01AC0155
:100F8000DF010E94F8319B01AC01C501B4010E9450
:100F900073312FE096958795779567952A95D1F7C8
:100FA000009186001091870030E020E006171707B7
:100FB0002807390708F095CF609186007091870067
:100FC00090CF282F220F220F220F90916503977048
:100FD000922B90936503987F21E009F420E0909193
:100FE000650320FB90F9909365030C943D07FA018B
:100FF000811101C0FB010994EAE2F3E011828281D0
:1010000084608283089580916003982F9E7F29F4E5
:10101000817082608093600308958A34E8F3817060
:101020008864F8CFAF92BF92DF92EF92FF920F9356
:101030001F93CF93DF93082F162FE901E42FF0E0E1
:10104000E25EFB4F611110C0E4915E2F4E2F498389
:10105000E8835A83DF91CF911F910F91FF90EF901A
:10106000DF90BF90AF900895E62EF12C4491D42EDE
:10107000E42FF0E026E0829FC00111242FEF30E042
:10108000B9010E948331802F90E0880F991F55E5A8
:10109000569FD001579FB00D11248A1B9B0B982F90
:1010A000990F890F5901AE18BF08AE9ED001AF9EAF
:1010B000B00DBE9EB00D11245B2F189F800111242E
:1010C000012F11275901A01AB10AAE9E8001AF9ECF
:1010D000100DBE9E100D11245901A81AB108AE9C26
:1010E000C001AF9C900DBE9C900D1124892F9927B3
:1010F000281B390B2E9FC0012F9F900D3E9F900DF6
:101100001124E92F62307105A1F050F461157105C9
:1011100009F49DCF6130710581F0EB2F512F97CFEE
:101120006430710569F080F06630710509F48FCF85
:10113000F4CFE42F4B2F592F8ACFE42F412F87CFA5
:10114000EB2F542F492F83CF4B2F5D2DE12F7FCFD6
:1011500080E0089578940895F894E82FE295EF7070
:10116000F0E031A1282F2F7081E090E001C0880FBE
:101170002A95EAF7982F9095932391A392A1892B12
:1011800082A30C94AA089091DE0292FF06C0282F39
:1011900028712830F9F4877F846093FF06C0282FD8
:1011A00028712831F1F4877E84612091DF0220FFCD
:1011B00006C0382F38713830D9F4877F816021FF1D
:1011C00006C0282F28712831D1F4877E816194FDD3
:1011D000877E0895282F24712430F9F68B7F88604C
:1011E000DCCF282F2471243101F78B7E8861DDCF7D
:1011F000382F3171313019F78E7F8860E0CF282F7A
:101200002171213121F78E7E8861E1CFCF93DF9369
:10121000EC018238910581F1B0F58133910509F433
:1012200091C020F58932910509F485C08A9709F4A7
:1012300090C0C11521E5D20708F0AAC0C11530E55C
:10124000D30708F0F2C0CF3BD10508F089C0C83AF7
:10125000D10508F0DFC0C53AD10508F0D3C0C430CD
:10126000D105F8F4C130D105E1F040C085339105D6
:1012700009F45AC0C997E9F68091DE02837089F0BB
:10128000C0EED0E00EC0833E910599F170F4803E2F
:10129000910501F1823E910561F68091DE0282FDA9
:1012A00021C0CE01DF91CF910895863E910561F175
:1012B000873E910571F1843E910509F0BACF809186
:1012C000DF0281FFEECF8091DE02C7EED0E084FD29
:1012D0000DC0E7CF8091DE0280FDF7C09091DF0264
:1012E00090FFDFCFC3EED0E084FFDBCFD0E0C0E0E3
:1012F000D8CF8091DE0282FDEBC09091DF0290FD9D
:10130000BFCF84FFCECFF2CF8091DE0283FDDDCF51
:10131000C8CF8091DE0283FDDEC09091DF0291FF95
:10132000F0CFC4EED0E0BDCF8091DE0285FFB9CF13
:10133000C9E2D0E0B6CF8091DE0285FFB2CFC5E32F
:10134000D0E0AFCF8091DE0286FFABCFCAE2D0E023
:10135000A8CF8091DE0286FFA4CFC1E3D0E0A1CF69
:10136000C11540E2D40760F4C11581E0D80708F048
:1013700098CFCE01815E9109079708F492CFB6CF3E
:10138000C11590E4D90708F4B1CFDF70D06A89CFD6
:10139000C11524E5D20778F4C11533E5D30708F069
:1013A00072C0C11542E5D40708F05CC0DC2FCC2721
:1013B000C16FD06A76CFC1158AE5D80778F4C11518
:1013C00099E5D90708F073C0C11528E5D20708F4DC
:1013D0008DCFDC2FCC27C06FD06A63CFCE01905663
:1013E0008115904208F082CF8D2F8F710E94C30823
:1013F00090E0982F882788279F719C012C2BE9016A
:10140000D0624FCFC55AD0E0CB57DE4FC881D0E075
:10141000D06447CFC85AD0E0CC0FDD1FC857DE4F8D
:101420000990D881C02DD4643CCFCE0164E096955C
:1014300087956A95E1F783702C2F26952695237062
:1014400040E2249F90011124382B8C2F8370C1E03F
:10145000D0E002C0CC0FDD1F8A95E2F7C22BD32B60
:10146000DC681FCFCE018370992721E030E002C0F5
:10147000220F331F8A95E2F7C695C69580E2C89F72
:10148000E0011124EBCFCE018370992721E030E0F9
:1014900002C0220F331F8A95E2F7C695C69590E2E7
:1014A000C99FE0011124C22BD32BDA68FACE8C2F0E
:1014B0008F700E94C30834E0D695C7953A95E1F73E
:1014C000CF709C2FEC01D069ECCEC9E3D0E0E9CE1F
:1014D000C2EED0E0E6CEC6EED0E0E3CE0C94E3065A
:1014E000E0E0F2E09191891303C0DF0111971C92B3
:1014F00092E0E630F907B1F70895A0E0B2E0EFEF2F
:1015000090E02D91821751F0EF3F19F4211101C0A5
:10151000E92F9F5F9630A9F7EF3F09F408950E2E4B
:10152000000CFF0BE250FE4F8283089580916B0206
:1015300090913A02981301C008958F5F8770FACF97
:101540009E3F49F1E82F2AE0929FE00D11249E2F43
:101550009770E695E695E69583E0E89FF001112403
:10156000E95FFD4F50E040E080E0219130E0092E3E
:1015700002C0369527950A94E2F721703327042E8E
:1015800001C0220F0A94EAF7822B4F5F5F4F43306E
:10159000510559F7089580E008959E3F69F1E82FBD
:1015A0002AE0929FE00D11248E2F877041E001C048
:1015B000440F8A95EAF7E695E695E69583E0E89F7D
:1015C000F0011124E95FFD4F30E020E070E051911F
:1015D000DF011197CB01022E02C0969587950A94E0
:1015E000E2F7817081958527842385278C932F5F6F
:1015F0003F4F2330310559F70895909148019923C1
:1016000029F081FD02C02E9A08952E9808959C011C
:101610003A9521153F4150F5FC01EE27F170BC01D0
:1016200066277270AC01442754709C0122273870E1
:1016300094FF0EC080E1EF2B09F480E0672B09F0E6
:101640008062452B09F08064232B89F0806808951F
:1016500081E0EF2B09F480E0672B09F08260452BD5
:1016600009F08460232B19F08860089580E00895C4
:10167000809377037093790360937803809190034C
:101680008430F9F48093E9008FEF9091E800815065
:1016900095FD06C095ED9A95F1F700008111F5CF03
:1016A0008091E80085FF0DC050E040E063E070E00D
:1016B00087E793E00E946C058091E8008E77809325
:1016C000E8000895BC0184E00C94380BBC0183E071
:1016D0000C94380BCF93DF93EC0181E08093E90009
:1016E0008FEF9091E800815095FD06C095ED9A9599
:1016F000F1F700008111F5CF8091E80085FF14C05B
:1017000050E040E068E070E0CE010E946C058091FE
:10171000E8008E778093E80088E0FE01ADE7B3E053
:1017200001900D928A95E1F7DF91CF91089581E0C4
:101730008093E00080E28093D8001092C9008FE18E
:101740009EE40197F1F700C0000087E090EBDC0118
:101750008093950390939603A0939703B093980377
:1017600088E19CE00FB6F894A895809360000FBEC6
:1017700090936000FFCFCF92DF92EF920F931F9371
:10178000CF93DF93CDB7DEB7E0970FB6F894DEBF07
:101790000FBECDBF609168018091600380FF4BC098
:1017A000E3E2F5E09E012F5F3F4F8E010F5C1F4F7C
:1017B000C901A4914A2F50E0DA01AA0FBB1FA40F60
:1017C000B51FA05DBC4FCD90DD90EC90D901CD92BE
:1017D000DD92ED929D013196A017B10751F720914E
:1017E000670143E0249F800D911D11246E9A2EB154
:1017F0002F7B3EB130645FB7F894FC01649FE00D2D
:10180000F11D1124BF018617970741F55FBFEFE572
:10181000F4E03197F1F700C00000E0960FB6F894BD
:10182000DEBF0FBECDBFDF91CF911F910F91EF9023
:10183000DF90CF9008958091690190916A0123E033
:10184000829FF0011124E05DFC4F891708F0A8CFBA
:101850001182108212828F5F3396F7CFDC014D9197
:10186000CD01E8E03EB9000000C047FF2EB9440FAB
:10187000000000C000C000C02EB900C0EA9591F77A
:10188000C2CF0F931F93CF93DF93EC0110E000E0E2
:1018900090916B019017110609F06CF40E94BB0B3C
:1018A0008C8190E00196817099278C83DF91CF9194
:1018B0001F910F91089520916901A801420F511DB8
:1018C0009A01220F331F240F351F205D3C4F4C819E
:1018D000609162038091610396959017110651F013
:1018E0004CF0442349F0409163030E9412080F5FBB
:1018F0001F4FCECF4423B9F340E0F7CF8F929F9292
:10190000AF92BF92CF92DF92EF92FF920F931F930D
:10191000CF93DF93EC014C81042F10E09801D801A4
:101920000E94E2319B01AC010E94F8314B015C0145
:10193000E0E2F0E0E01BF10BA5E5B0E0AC019B01BB
:101940000E94F8316B017C019F01DF010E94DA31B6
:101950009B01AC010E9403329B01AC01280D391D93
:101960004A1D5B1DC701B6010E94AB31F22E822FCA
:1019700090E039E23F1560F143E0249F900111248B
:1019800035952795122F109500E085E5E82EEF1884
:1019900080916B01081758F10E94BB0B9C8181E07C
:1019A000992319F0903219F48FEF8093660180919A
:1019B0006601890F8C83DF91CF911F910F91FF906A
:1019C000EF90DF90CF90BF90AF909F908F90089551
:1019D00025E530E0B901681B790B9B01220F331F0D
:1019E000260F371F37FFCCCF2F5F3F4FC9CF8E2D2C
:1019F00001FD8F2D20916901622F600F7727771FDE
:101A00009B01220F331F260F371F205D3C4F412FB4
:101A1000609162030E9412080F5FBACFEF92FF92AB
:101A20000F931F93CF93DF93EC018C81811109C039
:101A300081E08C8310922E0392E090936501809355
:101A400064018091690190916A0123E0829FF00115
:101A50001124E05DFC4F891768F110E003E060910C
:101A60006B01161768F10E94BB0B809164012091F5
:101A70002E03280F20932E0390916501980F9093C9
:101A80006501191654F4022E000C330B40916B01C2
:101A90004150550B2417350734F08195809364012C
:101AA000813009F41C82DF91CF911F910F91FF903B
:101AB000EF9008951182108212828F5F3396CBCF00
:101AC000E12EF12C70E0C7010E949731209169014D
:101AD000820F482F50E020912E03022E000C330B72
:101AE000E216F306BCF020916501022E000C330BC8
:101AF0002E153F057CF0809F90011124205D3C4F06
:101B00004091630360916203809161030E94120817
:101B10001F5FA5CFFA01EE0FFF1FE40FF51FE05D79
:101B2000FC4F118210821282F3CF9F92AF92BF922C
:101B3000CF92DF92EF92FF920F931F93CF93DF9399
:101B4000EC018A81BB24BA9480FD02C0BB24B3940B
:101B5000A0906B018C81811109C081E0B81225C071
:101B60008FEF8A0D80932D0381E08C83F12CE12C83
:101B7000EA14F0F00E94BB0B80912D0391E0B912A2
:101B80005BC0811154C080916B01815080932D0303
:101B90001C82DF91CF911F910F91FF90EF90DF900A
:101BA000CF90BF90AF909F90089510922D03DCCFFF
:101BB000009169010E0D1F2D111DC801880F991F7D
:101BC000080F191F005D1C4FF8011182108212824C
:101BD00034E0C32ED12C912C80912D03890D8131BD
:101BE00014F18F70082E000C990B8E159F0591F43F
:101BF000809163038C9DA0018D9D500D11245595FE
:101C000047955595479598016091620380916103CE
:101C10000E9412089B0CF1E0CF1AD108E9F68FEF71
:101C2000E81AF80AA5CF87FFDDCF8A0DDBCF8150F8
:101C300080932D03BC82ADCF90E0019660916B0143
:101C400070E00E94973180932D038C83A2CFEF9296
:101C5000FF921F93CF93DF93EC0110E0EE24EA9400
:101C6000F12C60916B01161770F00E94BB0B9A81EA
:101C70008C8190FF27C08F5F8C83DF91CF911F9164
:101C8000FF90EF90089520916901422F410F552751
:101C9000551FCA019A01220F331F280F391F205DDB
:101CA0003C4F70E0C7010E949731962F8C81409184
:101CB000630360916203199F800D11240E94120832
:101CC0001F5FCFCF8150D8CF9091600390FF14C099
:101CD0009091690120916A0133E0939FF0011124F2
:101CE000E05DFC4F921710F00C94BB0B8183608376
:101CF00042839F5F3396F6CF08950F931F93CF9340
:101D0000DF9300D00F92CDB7DEB78C0180912F0307
:101D100081110AC09E012F5F3F4F4FEF6FEF0E946E
:101D200012088A8180932F03F8016481613069F081
:101D300080912F0340E0662361F040E0623011F4AF
:101D400040912F0380E060E004C060912F0340E0E9
:101D500080E00E94640EF801848190E0019663E0C7
:101D600070E00E94973184830F900F900F90DF9165
:101D7000CF911F910F910895CF93DF9300D00F92D1
:101D8000CDB7DEB79091600390FF0AC09E012F5F30
:101D90003F4F0E9412084B8169818A810E94640E24
:101DA0000F900F900F90DF91CF910895CF93DF9315
:101DB000EC01E0E6F3E0438162818C810E94BC0E7D
:101DC0008C818F5F8C83DF91CF910895CF93DF93C8
:101DD000EC01EC81F0E0ED5CFA4F4491E0E6F3E0D9
:101DE000628181810E94BC0E8C818F5F8C83DF9128
:101DF000CF910895E0E6F3E080818E7F80830E949A
:101E0000FC07EAE2F3E08281816082832FEF80E7C2
:101E100092E0215080409040E1F700C000000C9417
:101E2000BB0B9F92AF92BF92CF92DF92EF92FF9245
:101E30000F931F93CF93DF937C015B016A01809125
:101E4000BF0201E010E08A3010F40AE010E0C1E0C7
:101E5000D0E0F894B501C701F6010995982E0E94CB
:101E6000AA08911004C021960C171D076CF4892D47
:101E7000DF91CF911F910F91FF90EF90DF90CF9066
:101E8000BF90AF909F900895CC9F9001CD9F300D53
:101E9000300D112490E080E045E34A95F1F7000011
:101EA000019682179307C1F7D4CF809181028111E7
:101EB00010C08091D80080618093D8008AE18A9513
:101EC000F1F700C08091D90080FF0AC081E08093C3
:101ED000810281E090918102913009F080E00895C3
:101EE00082E0809381020E941C0510929003F1CF42
:101EF0000E94550F882351F0E0916E03F0916F031B
:101F0000309721F00190F081E02D099480E0089550
:101F10000F931F930E94550F882321F01F910F915B
:101F20000C94E3060E94E3060091C0021091C102E6
:101F30002091C2023091C302600F711F821F931F54
:101F40001F910F9108950E94550F81110C94EF0677
:101F50000E94880FCB010895CF93DF93C7E0D2E0B2
:101F600060E0CE010E9452322196C11584E0D8076C
:101F7000B9F7DF91CF9108950F931F93CF93DF931C
:101F80008901823048F56C3038F54A3028F5211542
:101F90003C4531F42091660330916703232BE1F037
:101FA000C42FD0E0CC0FDD1F94E1699FC00DD11D7F
:101FB000112490EF899FC00DD11D1124612FCE01F6
:101FC00087960E945232602FCE018896DF91CF9182
:101FD0001F910F910C945232DF91CF911F910F916D
:101FE00008958F929F92AF92BF92DF92EF92FF92ED
:101FF0000F931F93CF93DF938090660390906703B6
:1020000081E090E0909367038093660383E3E82E7A
:1020100086E0F82ED12C8701C0E013C0F501259190
:1020200034914D2F6C2F8D2D0E94BC0F82E0A80E95
:10203000B11CDF5FDA3091F70C5E1F4FCF5FCC3001
:1020400019F05801D0E0EACF80EFE80EF11C81E0F2
:10205000D81619F0DD24D394DECF909267038092D6
:102060006603DF91CF911F910F91FF90EF90DF906A
:10207000BF90AF909F908F900895CF93C82F6FEF30
:10208000811169E383E290E00E9452326FEFC11147
:102090006DEB84E290E00E9452326FEFC11168E66E
:1020A00085E290E0CF910C94523280E00E943D1086
:1020B00060E086E290E00E9452320E94F10F0E949E
:1020C000AC0F81E00C943D10682F86E090E00C94FA
:1020D00052320E94E107809165030C946410809154
:1020E000650380FD13C0816080936503813019F41E
:1020F00089E080936503809165030E94641080915C
:1021000065038695869586950C943D0708950F93F3
:102110001F93CF93DF93823030F56C3020F54A3037
:1021200010F5C42FD0E0CC0FDD1F24E1629FC00D5D
:10213000D11D112430EF839FC00DD11D1124CE017C
:1021400087960E943E32082F10E0102F0027CE0104
:1021500088960E943E329801282BC901DF91CF91C9
:102160001F910F91089590E080E0F8CF462F2091C5
:102170006A0330916B03232B91F47E3F39F46E3F59
:1021800071F480916803909169030895823038F466
:102190007C3028F46A3018F4672F0C94871090E094
:1021A00080E00895CF92DF92FF920F931F93CF9319
:1021B000DF936C010091940380917602082BC7E0B5
:1021C000D0E010E0FC2EC8010C2E02C0959587953A
:1021D0000A94E2F780FD0CC02197A0F7F12C8F2D17
:1021E000DF91CF911F910F91FF90DF90CF900895D5
:1021F000B6018C2F0E94B6100E940609019761F368
:10220000EECFCF93DF93EC010E94D210BE010E946B
:10221000B610DF91CF910C940609FC018081918169
:102220000E94011192959F70963091F058F4925F40
:102230009F70923058F4803F19F030F4883E30F4AB
:1022400081E008959A5FF4CF843FD1F380E0089550
:10225000883EB0F3813FD1F7F3CF83E290E00E9454
:102260003E32893389F484E290E00E943E328D3B15
:1022700059F485E290E00E943E3291E0883609F000
:1022800090E0892F8170089580E0FCCFCF9384E0A7
:1022900090E00E943E32C82F82E290E00E943E32DF
:1022A000982F8C2FCF91089560916003669570E010
:1022B0004BE050E089E591E00E941432892B19F43B
:1022C00081E080932B030E94A30F909325038093BA
:1022D000240380912C03846080932C030895CF9273
:1022E000DF92EF92FF926B017C010E940308B7011D
:1022F000A60188E090E0FF90EF90DF90CF900C94E3
:102300006432AF92BF92CF92DF92EF92FF920F931F
:102310001F93CF93DF9300D00F92CDB7DEB7182F66
:10232000F62E042FE22E9091600390FF3AC0E92F21
:10233000E695AE2FB0E0A853BE4F8C9180932A0350
:102340009E7F9230E1F59E012F5F3F4F812F0E94CB
:1023500012084B8169818A810E94640E8091610319
:10236000811308C0809162038F1104C080916303C0
:10237000801729F080912C03826080932C031093A6
:102380006103F092620300936303EE2051F06091C9
:1023900060037091610380916203909163030E94D6
:1023A0006F110F900F900F90DF91CF911F910F91B0
:1023B000FF90EF90DF90CF90BF90AF900895823064
:1023C00019F400916303CACF863019F410916103A8
:1023D000C5CF8930D9F3893109F6E9518E2F817043
:1023E000D82EE695F0E0E25EFA4FA590B490C12CAD
:1023F000BB2460916B01C61618F00E94BB0BAECFD8
:102400002C2D30E0A29EC001A39E900DB29E900D97
:10241000112470E00E948331812FD11013C0860FE8
:1024200040916901420F532F511D9A01220F331F12
:10243000240F351F205D3C4F402F6F2D0E94120846
:10244000C394D7CF861BECCFE0E6F3E0438121E1D4
:10245000421B08F440E021E0628181810C948111EB
:10246000E0E6F3E0438121E1420F08F44FEF21E081
:10247000628181810C948111E0E6F3E0628121E1C7
:10248000621B08F460E021E0438181810C9481119A
:10249000E0E6F3E0628121E1620F08F46FEF21E0F2
:1024A000438181810C948111E0E6F3E0818121E098
:1024B0004381628188500C948111E0E6F3E08181D0
:1024C00021E043816281885F0C94811180916403D3
:1024D000882319F0815080936403609160037091A8
:1024E000610380916203909163030C946F1180915A
:1024F0006403833018F48F5F8093640360916003FA
:102500007091610380916203909163030C946F1149
:102510009091600390FF3BC0917081112EC092603A
:102520009093600380912C03816080932C03662339
:1025300051F060916003709161038091620390910A
:1025400063030E946F1160916003669570E04BE039
:1025500050E089E591E00E941432892BA9F00E9495
:10256000FC0781E08093270320E0409163036091A2
:102570006203809161030C948111853210F098649C
:10258000CFCF880F982BCCCF0E945411EACF08955B
:1025900061E00C948812809160038695815009F463
:1025A00084E261E00C9488128091600386958F5FCD
:1025B000853208F081E061E00C948812909160030C
:1025C00090FF07C09695981720F0961710F40C947A
:1025D000D4120C94C812E0E6F3E083E08083118209
:1025E0008FEF828383831482AAE2B3E012968C91E8
:1025F0001297836012968C9360817181828193819E
:102600000C946F1169EE7EEF90E080E00E947032D2
:1026100060E082E090E00E94523260E083E090E06F
:102620000E9452321092760260E084E090E00E94B4
:10263000523260E082E290E00E94523260E085E037
:1026400090E00E94523260E086E090E00E945232B8
:102650006FEF87E090E00E94523240E050E0BA0114
:1026600088E090E00E94643260E08DE090E00E949B
:10267000523240E050E0BA0188E190E00E946432BA
:1026800060E087E190E00E94523240E050E0BA0101
:102690008CE190E00E94643270E060E080E290E0C3
:1026A0000E94703240E050E0BA0188E190E00E9460
:1026B000643280E00E943D100E9455100E946F100D
:1026C00083E00E946910E0E6F3E08081816080830E
:1026D00086950E94C81221E04FEF6FEF80E00E94C4
:1026E00081118BE00E94C81240E050E0BA018FE0F7
:1026F00090E00E94643240E050E0BA0183E190E053
:102700000C9464321F93CF93DF9300D000D0CDB7E9
:10271000DEB74091B3025091B4026091B50270915E
:10272000B6022FB7F8948091730390917403A0912F
:102730007503B09176032FBF841B950BA60BB70BC7
:1027400011E084369105A105B10570F10E94880F52
:102750006E5F7F4F8F4F9F4F69837A838B839C83FC
:1027600080912101909122018A569D4F4091200134
:1027700050E04530510510F044E050E0BE016F5F7D
:102780007F4F0E942E3284E090E00E94FD30182F8F
:10279000882351F00E94E3066093B3027093B40261
:1027A0008093B5029093B602812F0F900F900F90F7
:1027B0000F90DF91CF911F9108954F925F926F928A
:1027C0007F928F929F92AF92BF92EF92FF920F9360
:1027D0001F93CF93DF937B01FB0140805180628088
:1027E00073809FB7F8948090730390907403A090C7
:1027F0007503B09076039FBF84189508A608B708A4
:10280000F4E68F169104A104B10418F4C1E0442346
:1028100029F1C82F880FDD0BFE0183E0EE0FFF1FAB
:102820008A95E1F7E050FF4F818192818A569D4F52
:10283000408150E00417150708F4A801B9010E946F
:102840002E32CE010E94FD30C82F882339F00E941D
:10285000E306F70160837183828393838C2FDF917A
:10286000CF911F910F91FF90EF90BF90AF909F90ED
:102870008F907F906F905F904F9008950F931F936C
:10288000CF93DF93CDB7DEB728970FB6F894DEBFAE
:102890000FBECDBF85E0E0E6F3E0DE0111960190CA
:1028A0000D928A95E1F780912A0390912B03A091D4
:1028B0002C038E839F83A88741E08885811101C006
:1028C00040E008E010E09E012F5F3F4F6BEB72E0AD
:1028D00086E00E94DD13811110922C0328960FB61A
:1028E000F894DEBF0FBECDBFDF91CF911F910F9146
:1028F00008950F931F93CF93DF930F92CDB7DEB759
:102900008091650380FF1AC0869586958695898398
:1029100041E09091AA02981301C040E001E010E06C
:102920009E012F5F3F4F67EB72E085E00E94DD1351
:102930000F90DF91CF911F910F91089580E0E7CF25
:102940004F925F927F928F929F92AF92BF92CF925F
:10295000DF92EF92FF920F931F93CF93DF930F922B
:10296000CDB7DEB7C62E4A015901482E880F55084B
:10297000C2010E94FD30782E882309F480C0C20174
:1029800033E0880F991F3A95E1F7FC01E050FF4FC3
:10299000438150E04115510511F041E050E0805075
:1029A0009F4FFC01648175816A567D4FCE0101966F
:1029B0000E942E32F40140815181628173812FB7D0
:1029C000F8948091730390917403A0917503B09172
:1029D00076032FBF841B950BA60BB70B843691058E
:1029E000A105B10540F4B701C8010E9427079981EC
:1029F000891709F444C00C2C000CDD08C6010E94A4
:102A0000FD30782E811113C0712C872D0F90DF912E
:102A1000CF911F910F91FF90EF90DF90CF90BF90DB
:102A2000AF909F908F907F905F904F900895C601D8
:102A300023E0880F991F2A95E1F7FC01E050FF4F32
:102A4000438150E0E416F50608F4A70180509F4F3B
:102A5000FC01648175816A567D4FC5010E942E324A
:102A6000B701C8010E94270799818913CDCF0E9421
:102A7000E306F4016083718382839383C6CFA70149
:102A8000B801C5010E942E32C0CFCF92DF92EF92E3
:102A9000FF920F931F93CF93DF93CDB7DEB72C97A1
:102AA0000FB6F894DEBF0FBECDBF6B018CE0E82EF1
:102AB000F12C07E912E09E012F5F3F4F4EE852E0F4
:102AC00061E080E00E94A014882349F09CE0FE01B0
:102AD0003196A2E8B2E001900D929A95E1F79CE060
:102AE000E2E8F2E0D60101900D929A95E1F72C967A
:102AF0000FB6F894DEBF0FBECDBFDF91CF911F910F
:102B00000F91FF90EF90DF90CF9008956F927F929A
:102B10008F929F92AF92BF92CF92DF92EF92FF92ED
:102B20000F931F93CF93DF93CDB7DEB7A4970FB664
:102B3000F894DEBF0FBECDBF8E010F5F1F4F88E13F
:102B4000D8011D928A95E9F762E4E62E61E0F62E3F
:102B5000680166246394712CE2E48E2EE1E09E2EDF
:102B6000F70181917F018F3F09F446C0F894E82F67
:102B7000E295EF70F0E021A18F70A30102C0440F35
:102B8000551F8A95E2F7CA01922F982B91A392A123
:102B90008095892382A30E94AA0800C0E8E3F1E09F
:102BA00021E030E0B12CA12C41914F3F09F482C0CB
:102BB000A42FA295AF70B0E090968C9190E04F70EA
:102BC00002C0959587954A95E2F780FD73C0C901CB
:102BD000A82AB92A220F331F8E169F0629F7F7015C
:102BE000319780818F3F11F00E94AC0850EA5A95CE
:102BF000F1F7D601AD92BC92B2E0CB0ED11CE8E465
:102C0000EE16E1E0FE0609F0ABCF48E150E0B80176
:102C100084EC92E00E9421327C01892B41F088E112
:102C2000F801A4ECB2E001900D928A95E1F71091C1
:102C3000DD02E114F10409F440C081E080937902DF
:102C40000E94EF069093780280937702809177023A
:102C5000909178020E94D406059798F0A4ECB2E017
:102C6000E12FF0E0EE0FFF1FE45FFC4F80ED92E0FC
:102C70002D913D91219331938A179B07C9F71092AB
:102C8000790281E090E0EF28E1F0A4960FB6F89485
:102C9000DEBF0FBECDBFDF91CF911F910F91FF908F
:102CA000EF90DF90CF90BF90AF909F908F907F90EC
:102CB0006F90089590E080E08BCF80917902811130
:102CC000C5CF0E94550FD82EE091DD02AE01475EC0
:102CD0005F4F7A01882309F485C08CE0DA011D92E8
:102CE0008A95E9F70E2F10E0000F111F045F1C4FAB
:102CF0008091BF028A3008F03FC045E455E1B7013A
:102D0000C8010E94110F882309F446C04FE85CE116
:102D1000B701C8010E94110F8823F1F142E853E185
:102D2000B701C8010E94110F8823B1F149E754E1AE
:102D3000B701C8010E94110F882371F14EE354E1DD
:102D4000B701C8010E94110F882331F11092BF0210
:102D50008091DC0290E0880F991F4CE050E0B701B1
:102D6000845F9C4F0E94213221E020938002892BB6
:102D700051F5D12C8D2D89CF80917A0290917B02D3
:102D80000E94D406843F914008F0B7CF8091800222
:102D9000811112C080E079CF8091BF028F3F29F06E
:102DA0008F5F8093BF028A3098F20E94EF06909363
:102DB0007B0280937A02EACF8CE0F70111928A9528
:102DC000E9F710928002A091DC02B0E0AA0FBB1FCD
:102DD000A45FBC4F8CE0FE01799601900D928A951C
:102DE000E1F7C8CFF0E0EE0FFF1FE45FFC4FF8946F
:102DF0008CE0A7E9B2E001900D928A95E1F76CE0D2
:102E000070E087E992E00E942707809396020E9473
:102E1000AA08F894E0910403F0E0E250FD4F8081AD
:102E200091819A8F898F9093A5028093A40262E08A
:102E300070E0C7010E9427078093A3020E94AA089E
:102E4000F894C090A602D090A702E090A802F0905B
:102E5000A90280917C0290917D02A0917E02B091A6
:102E60007F02C816D906EA06FB06D1F0C0927C02A2
:102E7000D0927D02E0927E02F0927F020E94550F76
:102E800081110EC00E94E306C61AD70AE80AF90AA1
:102E9000C092C002D092C102E092C202F092C3027C
:102EA0000E94AA08F8948091AA020E943D070E94FD
:102EB000AA08F8948091B202882379F180FF0DC0AE
:102EC0008091AB0280FF2CC0909160039160909341
:102ED000600360E086950E9488128091B20281FFB3
:102EE00009C020E04091AE026091AD028091AC0239
:102EF0000E9481118091B20282FF06C08091B102CE
:102F0000882389F00E9454118091B20283FF03C08C
:102F100081E0809327031092B2020E94AA083ACF60
:102F20000E94FA0EDACF0E94FC07EECF8091750264
:102F300090917402892B8093FE0148E050E06CE68A
:102F400072E08EEF91E00E942132892BA9F088E097
:102F5000EEEFF1E0ACE6B2E001900D928A95E1F778
:102F6000E0916E03F0916F03309731F00280F381AE
:102F7000E02D8EEF91E00994089590E080E00E94AA
:102F8000110790E080E00E94FB06109274020C94FE
:102F90009617809394030C94BD1780919403982FF7
:102FA0009670963019F488600C94C917877FFCCF0F
:102FB00021E030E001C0220F8A95EAF72095809148
:102FC000940382230C94C91721E030E001C0220F42
:102FD0008A95EAF780919403822B0C94C917809309
:102FE00076020C94BD1710927502E0E0F2E086E0E4
:102FF000DF011D928A95E9F70C94BD171F93CF93BB
:10300000DF93CDB7DEB7AA970FB6F894DEBF0FBE39
:10301000CDBF88E893E02091F100DC012D93CD0134
:10302000B3E080399B07B9F780918903833009F4B5
:1030300072C0B8F4813009F449C0823009F4B3C0D9
:103040008091E80083FF96C2809188039091890364
:103050009A3008F08FC2E92FF0E0E857FD4C0C944D
:10306000CD318A3009F48EC08B3009F471C08930BB
:1030700039F780918803813219F780918C03909100
:103080008D03009711F00297D9F68091E800877FB1
:103090008093E8008091E80082FF38C09091F300AF
:1030A0008091F200029731F48091F100813011F0AB
:1030B000863021F48091F10080937C038091E800B8
:1030C0008B778093E8000E94BE05BACF8091880379
:1030D000813A09F0B5CF8091E800877F8093E800BE
:1030E00080918C0390918D03892B61F468E08DE7CA
:1030F00093E070E00E9470068091E8008B778093E7
:10310000E8009ECF60E090E080E0F3CF80919003F4
:103110008111C0CF95CF80918803813A09F090CF7B
:1031200080918C0390918D03892B09F089CF809138
:10313000E800877F8093E8008091E80080FFFCCF63
:1031400080916C018093F1008091E8008E77B9CF77
:1031500080918803813209F073CF80918C03909124
:103160008D03892B09F06CCF8091E800877F8093D5
:10317000E8000E94BE0580918A0380936C010E9442
:10318000F3175ECF80918803813209F059CF809187
:10319000E800877F8093E8000E94BE0580918B0342
:1031A00080937B034DCF80918803813A09F048CF0B
:1031B0008091E800877F8093E8008091E80080FF9D
:1031C000FCCF80917B03BECF803899F0823809F024
:1031D000D1C180918C038F70873008F0CBC1809370
:1031E000E9008091EB0085FB882780F91092E900C7
:1031F00006C0809185039091860391118260909121
:10320000E800977F9093E8008093F1001092F1001E
:103210008091E8008E77AAC1882309F498C1823092
:1032200009F0A8C180918A0381119BC180918C0310
:103230008F702FEF280F263008F09CC18093E90093
:103240002091EB0020FF8DC1933031F48091EB0091
:1032500080628093EB0085C19091EB009061909328
:10326000EB0021E030E001C0220F8A95EAF72093BD
:10327000EA001092EA008091EB008860EACF8111A9
:1032800079C110918A031F778091E3008078812BA8
:103290008093E3008091E800877F8093E8000E949C
:1032A000BE058091E80080FFFCCF8091E30080683C
:1032B0008093E30082E0111183E0809390035AC170
:1032C0008058823008F056C120918A0330918B03D8
:1032D0002C3DE3E03E07A1F583E08A838AE28983FF
:1032E0004FB7F894DE01139620E03EE051E2E32F61
:1032F000F0E050935700E49120FF03C0E295EF7097
:103300003F5FEF708E2F90E0EA30C0F0C7968D934C
:103310009D932F5F243159F74FBF8091E800877F3D
:103320008093E8006AE270E0CE0101960E94700688
:103330008091E8008B778093E8001CC1C096E7CFAE
:1033400080918C0390918D03432F55274330510575
:1033500009F44AC078F54130510509F485C08BE580
:1033600090E0E3E0F9E04230510509F003C120911B
:10337000E800277F2093E80020918E0330918F038F
:103380008217930708F49C0140E02115310509F0EC
:1033900070C041116EC08091E80082FDC9CF80915C
:1033A0009003882329F2853019F28091E80083FF89
:1033B000F2CFBECF4132510509F447C04232510528
:1033C00009F0D8C08330910508F0D4C0FC01EE0F9D
:1033D000FF1FE051FE4F0190F081E02D83519E4F81
:1033E000DC018C9190E01DC0332721303105E9F0DC
:1033F0002115310579F022303105F9F023303105FE
:1034000009F0B8C0E0E7F9E0E4918E2F90E0E0E742
:10341000F9E007C0E0ECF9E0E4918E2F90E0E0ECF9
:10342000F9E0009709F4A6C0A2CFE0EBF9E0E4913F
:103430008E2F90E0E0EBF9E0F4CFEEE8F9E0E491D4
:103440008E2F90E0EEE8F9E0ECCF8330910508F0A4
:1034500091C0880F991FFC01EA50FE4F0190F08146
:10346000E02D89E090E083CF82E190E0EEE5F9E0A5
:103470007ECF80919003882309F45ACF853009F4D8
:1034800057CF8091E80083FD53CF8091E80082FD03
:1034900082CF8091E80080FF78CF9091F3008091F7
:1034A000F2002115310519F08830910550F041E006
:1034B000089709F040E08091E8008E778093E8005B
:1034C00064CF44914093F100319621503109019627
:1034D000E8CF803809F04EC08091E800877F809364
:1034E000E800809187038093F10092CE811142C061
:1034F00010918A031230F0F58091E800877F809365
:10350000E800109387030E94BE05112311F084E0A8
:1035100005C08091E30087FDFACF81E0809390039E
:1035200042E061EC81E00E94DD0542E261EC84E072
:103530000E94DD0542E261EC82E00E94DD0542E28C
:1035400060EC83E00E94DD058091900313C08091C0
:103550008A03813079F481E0933009F080E0809330
:1035600086031092E9008091E800877F8093E8004D
:103570000E94BE058091E80083FF0AC08091E800A8
:10358000877F8093E8008091EB0080628093EB005E
:10359000AA960FB6F894DEBF0FBECDBFDF91CF91D4
:1035A0001F910895882341F080959091740289239A
:1035B000809374020C9496170895882339F09091A3
:1035C0007402982B909374020C9496170895882394
:1035D00041F08095909175028923809375020C9437
:1035E00096170895882339F090917502982B90933F
:1035F00075020C9496170895882309F452C08238F6
:1036000071F40E94780F81FF4CC089E30E947D0A0B
:103610000E94961789E30E94700A0C9496178338CB
:1036200059F40E94780F80FF3CC083E50E947D0A18
:103630000E94961783E5EFCF843859F40E94780FE3
:1036400082FF2FC087E40E947D0A0E94961787E4BC
:10365000E2CF9CEF980F913AF0F290E2980F9830F9
:1036600088F4877021E030E0A90102C0440F551FA3
:103670008A95E2F7CA01809590917502892380931B
:103680007502CBCF9BE5980F933020F490E080E05B
:103690000C941107885A873120F490E080E00C9454
:1036A000FB060895CF93C82F882309F488C0823879
:1036B000C1F40E94780F81FD82C089E30E947D0AD7
:1036C0000E9496172FEF81EE94E0215080409040A9
:1036D000E1F700C0000089E30E94700ACF910C94CA
:1036E00096178338A1F40E94780F80FD68C083E5A7
:1036F0000E947D0A0E9496172FEF81EE94E02150E0
:1037000080409040E1F700C0000083E5E5CF8438B9
:10371000A1F40E94780F82FD52C087E40E947D0AC6
:103720000E9496172FEF81EE94E021508040904048
:10373000E1F700C0000087E4CFCF8CEF8C0F813A17
:1037400068F4E0E0F2E08191C81799F122E0E630F8
:10375000F207C9F78C2F0E947D0AC0CF80E28C0F40
:10376000883068F4C77021E030E001C0220FCA95AC
:10377000EAF780917502822B80937502AFCFEBE55B
:10378000EC0FE33040F4F0E0EB57FE4F808190E027
:10379000CF910C941107C85AC73188F4EC2FF0E090
:1037A000EE0FFF1FE857FE4F80819181CF910C945F
:1037B000FB068C2F0E94700A0E949617CBCFCF91E8
:1037C00008951F93CF93DF93182FD0E0C0E0893383
:1037D00011F4C0E5D0E0812F0E94521B209731F4F4
:1037E000812FDF91CF911F910C94FC1A8FE99FE0FC
:1037F0000197F1F700C000002197F0CF0F931F93BE
:10380000CF93DF93C62FD42F022FFC018281882310
:10381000A1F0609393030E94EF069093920380932C
:103820009103C77081E001C0880FCA95EAF7DF9164
:10383000CF911F910F910C94F21A8091930368130A
:1038400035C080919103909192030E94D406883CE8
:10385000910560F510E21D0FCD17B9F080E28C0FD5
:10386000883040F4C77081E001C0880FCA95EAF73C
:103870000E94E71A183048F481E09D2F977001C02C
:10388000880F9A95EAF70E94F21A802F0E94E11B96
:10389000183098F4D77081E001C0880FDA95EAF704
:1038A000DF91CF911F910F910C94E71AC77081E0BF
:1038B00001C0880FCA95EAF7F3CFDF91CF911F912E
:1038C0000F91089581110FC0662341F087EB0E948C
:1038D000E11B8EE40E94E11B80E0089586EB0E94CC
:1038E000E11B8BE4F7CF823061F4662329F089EA8B
:1038F0000E94E11B81E5EECF8AEA0E94E11B82E58E
:10390000E9CF833029F48BEA6111E4CF8CEAE2CF6E
:10391000813011F789EA6111DDCF8AEADBCF9F920E
:10392000AF92BF92CF92DF92EF92FF920F931F93CD
:10393000CF93DF9300D0CDB7DEB782E0E82EF12C35
:1039400004EA12E09E012F5F3F4F42E952E063E03C
:1039500082E00E94A014B82E882321F1AE014F5FAF
:103960005F4F6A0180E0A12C0091E1020A0DF6018F
:1039700011916F01202F30E0A90142505D4F7A0173
:10398000FA019081191B912E1914F4F0912F17FD53
:1039900090E0191B111123C0F1E0AF1212C0811188
:1039A0000E946E0A8B2D0F900F90DF91CF911F9187
:1039B0000F91FF90EF90DF90CF90BF90AF909F90CE
:1039C0000895AA24A394D0CF9A94F70180818F5FA1
:1039D000808360E0802F0E94621C8B2DD5CF1F5FFB
:1039E000F70180818150808361E0802F0E94621CFA
:1039F0008B2DD0CFAF92BF92CF92DF92EF92FF92FA
:103A00000F931F93CF93DF93EC018AE0A82E2881B8
:103A1000222309F48CC02130C9F599818A81913023
:103A200021F422960E94E11B05C0923029F42296CF
:103A30000E94521B2196EBCF933021F422960E94D4
:103A4000FC1AF8CF943011F02196F4CF229630E092
:103A500020E0AE014F5F5F4F8053990B8A30910594
:103A600050F02150310930F38FE99FE00197F1F7D1
:103A700000C00000F6CFA29EB001A39E700D1124DD
:103A80009C01260F371F8981EA01E3CFE22FF0E086
:103A9000E059FE4FB490822F86958695869590E0EA
:103AA000FC01E05AFE4FE4902770F12C022E02C078
:103AB000F594E7940A94E2F731E0E322FF24FC0155
:103AC000E05BFE4FC490D12C022E02C0D594C79467
:103AD0000A94E2F731E0C322DD24FC01E05CFE4FF2
:103AE000049110E002C0159507952A95E2F7017040
:103AF0001127E114F10419F081EE0E94521BC11448
:103B0000D10419F086EE0E94521B8B2D0E94E11BFE
:103B1000CD2819F086EE0E94FC1AEF2819F081EEEC
:103B20000E94FC1A012B09F485CF8CE27BCFDF9138
:103B3000CF911F910F91FF90EF90DF90CF90BF90AA
:103B4000AF900895BF92CF92DF92EF92FF920F93C2
:103B50001F93CF93DF9300D000D00F92CDB7DEB785
:103B60007C01FC0183819481892B31F080819181DA
:103B700089238F3F09F0ECC40F900F900F900F90A6
:103B80000F90DF91CF911F910F91FF90EF90DF90F9
:103B9000CF90BF9008950E94D210182F682F89816E
:103BA0009A810E94CD0A69817A81812F0E94B61084
:103BB0008C01F7019281992309F4A3C49801225141
:103BC0003F452031310508F020C48FEF93E00E947B
:103BD0003E32025197E0C92E92E0D92E8111CCCF0E
:103BE000011135C019821A821B821C82BB24BA942F
:103BF00086010F5F1F4FC6010E943E3289831A82E1
:103C0000882309F4B9CF813009F082C0760142E0FF
:103C1000E40EF11CC8010E943E32082F8A838823DB
:103C200009F4AACFC7010E943E32182F8FEF800FF0
:103C30008330E0F4760153E0E50EF11C1B83112381
:103C400021F0CE0101960E94FA1C6701D1CFC11468
:103C5000F4E0DF0609F490CFC6010E943E328111E4
:103C600001C001502FEFC21AD20ABACF8BEF800FDA
:103C7000833038F5C60103961B837C01112329F399
:103C80007601E4E0EE0EF11C0E943E328C83882324
:103C9000E1F2CB80DC80F1E0CF16FFEFDF0610F021
:103CA000DC2CCC24063049F0073019F0C6010E9404
:103CB0003C26C6010E94ED25C8CFC6010E943C26C5
:103CC000C4CF043011F6760124E0E20EF11CC601E7
:103CD00003960E943E32112309F44ECF882309F443
:103CE0004BCF8150990BB89E9001B99E300D112495
:103CF000412F4150550BCA01820F931F019708F4C1
:103D0000A4CFEFE9FFE03197F1F700C00000F6CF54
:103D1000CE0101960E94FA1C780197CF81E00E94A3
:103D2000E41703C081E00E94D8170E94CD1724CF6A
:103D300082E0F5CF82E0F7CF0F3BECE51E0709F4F8
:103D400051C0E0F1003C2CE5120709F079C39091D5
:103D50006503892F8695869586958F5F8F719770FD
:103D6000843008F04DC0880F880F880F892B80930E
:103D70006503809165030EC083E00E946910FCCE4C
:103D800080E0FBCF80916503982F987F79F0885071
:103D900080936503887F91E009F490E0809165034A
:103DA00090FB80F9809365030E9464108091650305
:103DB0008695869586950E943D07DECE80916503A7
:103DC000982F969596959695933040F49F5F990F0E
:103DD000990F990F8770892B8093650380916503F4
:103DE0008160E0CF8091650380FF07C08E7F809364
:103DF00065030E94641080E0DECF0E946F10BCCE8D
:103E000090936503B6CF27E245EE65EE9DC326E2AB
:103E100041EE60EE99C327E245EE64EE95C326E2DB
:103E200041EE62EE91C328E241E0EFCF01368DE52D
:103E3000180709F42DC3053AEDE51E0709F428C358
:103E40000631ECE51E0709F0F8C3809175028A7A05
:103E500091E009F490E0909306028111F0C089E2AC
:103E60000E947D0A0E94961787CE8091DE028062B2
:103E700007304CE5140709F497C08091DE02806199
:103E800008301C4508F490C08091DE0280648CC02C
:103E90000D308CE5180709F49CC098F48091DE027F
:103EA0008E7F0B30ECE51E0709F47EC08091DE02A8
:103EB0008C600C301C4508F477C08091DE028D7F49
:103EC00073C08091DE028F7E0F302CE5120709F45B
:103ED0006BC08091DE02877F00311C4508F464C00E
:103EE0008091DE028F7D60C00D3F5CE5150709F40F
:103EF00078C050F505319CE5190709F480C098F4A5
:103F00008091DE02837F0331FCE51F0709F44CC07A
:103F100008F46FC00E94F3179091DE02892F97FB7F
:103F200087F9805841C00B3F4CE5140709F447C09E
:103F300008F053C00A3F1C4509F0D3C28091DF024C
:103F400081608093DF02CDC201309DE5190709F43D
:103F500062C0B8F48091DF028C7F0F3FFCE51F0741
:103F600081F38091DF02836001151D4550F380913C
:103F7000DF02982F909591708E7F892B90FB81F9AD
:103F8000E0CF01364DE5140709F44BC0053A5DE575
:103F9000150709F44DC002301D4509F0A2C260E0CA
:103FA0003BC08091DE0282608093DE029AC28091E3
:103FB000DE028460F9CF8091DE028860F5CF8091C7
:103FC000DF028260BECF0E94F3178091DE0280681C
:103FD000EBCF8091DE028B7FE7CF8091DF028E7F77
:103FE000B0CF8091DF028D7FACCF8091DE028F7BDE
:103FF000DBCF0E94F3178091DE028F77D5CF8091BF
:10400000DE0282FB992790F921E0922790FB82F94A
:1040100090FB83F9C9CF61E08EE090E00E945232BC
:1040200060C29091DE02892F8F7E94FF8061BCCFA9
:104030009091DE02892F8E7F90FF8160B5CF85E35E
:104040000FCF80910602811104C089E20E94700A9C
:1040500009CF85E3FBCF8091600380FF20C08E7F76
:1040600080936003609160037091610380916203AB
:10407000909163030E946F110E94FC0780912C03B2
:10408000816080932C03FFEF20E742E0F150204055
:104090004040E1F700C000000E94BB0B6DCD816085
:1040A0008093600386950E94C81266CD4BEC52E166
:1040B00064ED72E10E94F7075FCD44ED52E16BECD5
:1040C00072E1F8CF4DE552E164E572E1F3CF4CE3E4
:1040D00052E168E472E1EECF44E252E160E372E162
:1040E000E9CF40E352E164E272E1E4CF47E752E115
:1040F00066E672E1DFCF81E0D6CF65E082E00E9424
:10410000DE123ACD68E086E0FACF64E18FE0F7CFC7
:1041100067E185E1F4CF62E289E1F1CF83E2C3CFC9
:104120000E94F3175FEF84E39CE051508040904081
:10413000E1F700C000000E94970BC8010E94A00A8E
:10414000D82EC1C2092F0F70907F11F00295007F09
:10415000812F2223C9F0002369F090E2910F98305B
:1041600010F011110BC080917502082B009375029D
:104170000E949617812F0E94521B17C080917402D3
:10418000082B00937402F4CF0E94FC1A002369F0FC
:104190000095105E183010F0B11014C080917502B7
:1041A0000823009375020E949617E8E0CE1AD10802
:1041B000F4E0CF16D10408F0DFCC0E94780F0E9403
:1041C000FD0ADACC80917402082300937402EBCFCD
:1041D000892F8F70907F903211F08295807FF1E06F
:1041E000BF120CC0222329F03630F8F60E94F21AD2
:1041F000DCCF3530D0F60E94E71AD7CF222341F02A
:104200003323A1F340FFB6CF4F70F7014583EECFC4
:10421000332389F3193349F4FFEF27EE43E0F150DC
:1042200020404040E1F700C00000812F0E94FC1AAE
:10423000BCCF892F86958695837061F0813009F017
:10424000B4CF812F9370211102C090E080E00E94D2
:10425000FB06ABCF812F9370211102C090E080E06C
:104260000E941107A2CF892F8370A1F521119DCF44
:10427000812F829586958770880F880F412F4F7008
:10428000082E01C0440F0A94EAF7212F207114FF71
:1042900007C02FE030E001C0220F8A95EAF7209591
:1042A000969596959370923081F0822F842B93305F
:1042B00030F480917602913029F0242B82230E94E1
:1042C000EF1773CF842B822BFACF242B80917602A9
:1042D0008227F5CF8695222311F0892F81708823BC
:1042E00009F463CF812F829586958770880F880F98
:1042F000412F4F70082E01C0440F0A94EAF7212F76
:10430000207114FF07C02FE030E001C0220F8A9512
:10431000EAF72095969596959370923081F0822FCA
:10432000842B933030F480919403913029F0242B26
:1043300082230E94C91739CF842B822BFACF242BDA
:10434000809194038227F5CF092F0F70222329F043
:10435000802F0E94E417812F49CF812F0E94E71AF6
:10436000802F0E94D81721CF812F51EF151789F187
:10437000511750F0E0EF1E17B9F02223B1F13111BF
:10438000F9CE892F8F7129C0F2EF1F1749F143EF42
:104390001413F3CF80E0222361F29F7181E001C00A
:1043A000880F9A95EAF7C5CF222379F0353008F0C7
:1043B000FCCE292F2F7181E090E001C0880F2A9553
:1043C000EAF7909194038927B4CF363008F0EDCE08
:1043D000F0CF892F8F71222321F20E94E417E5CEBE
:1043E000892F8F712223C9F3BCCF332359F089332E
:1043F00009F01BCF5FEF87EE93E051508040904073
:10440000E1F711CF892F8F71ACCF00312FE5120763
:1044100009F484CC01314FE5140709F489CC0D3B34
:104420002CE5120709F4AECC08F086CC0B3B5CE51A
:10443000150709F4A1CC0C3B8CE5180709F4A0CCB6
:10444000033FECE51E0709F4E2CC08F057C1083D34
:104450002CE5120709F4D7CC093D4CE5140709F403
:10446000E2CC073D5CE5150709F46BC0109293039D
:1044700003304DE5140708F0D9CC0A3F5CE5150779
:1044800038F4980122503C452431310508F0D8CC4D
:104490000E9446119093DF028093DE020131FCE519
:1044A0001F0709F4A2CD08F01FCD09304CE5140711
:1044B00009F489CD08F0ECCC05308CE5180709F437
:1044C0007ACD08F0D2CC0330ECE51E0709F469CDB3
:1044D00008F06DCD8091DE02816002301C4509F448
:1044E00063CD6091DE021091DF0284E090E00E94D3
:1044F0005232612F82E290E00E9452320E94F31702
:104500003BCB00315FE5150709F40CCC01318FE599
:10451000180709F40FCC033F5CE5150709F477CCC5
:1045200008F096C0083DECE51E0709F46CCC093D87
:10453000FCE51F0709F477CC073D2CE5120709F0CD
:1045400093C026E241EE61EEC7010E94FE1B14CB30
:1045500085E0DE01119601900D928A95E1F7F70151
:10456000228189819A81211116CB0E94A00A182FDD
:104570001ACB043C5CE5150709F49FCD44E552E1F4
:104580006DE572E1053C1C4509F494CD8EC0093CF3
:10459000FCE51F0709F4A0CD70F4073C4CE51407B7
:1045A00009F495CD083C1C4509F07FC048E452E170
:1045B0006CE372E17FCD0A3CECE51E0709F491CD76
:1045C00046E652E167E772E10B3C1C4509F472CD07
:1045D0006CC0013D2CE5120709F497CD98F40E3C10
:1045E0005CE5150709F489CD08F485CD0F3CECE5B1
:1045F0001E0709F487CD6EE089E0003D1C4509F4F3
:104600007ECD53C0043D2CE5120709F484CD58F447
:10461000023D5CE5150709F47BCD033D1C4509F01F
:1046200044C088E140CD053DECE51E0709F476CD98
:104630000D351D4509F4A0CA38C001152CE5120737
:1046400009F46ECD0E3D1C4581F50E94021394CAFB
:10465000053F4CE5140709F4E2CB08F4DCCB063F38
:104660008CE5180709F456C00631FCE51F0709F46C
:10467000E8CC8091750282720C3C2CE5120709F49B
:1046800035CD08F0A6CF063C5CE5150709F41ACD38
:1046900008F07DCF033CFCE51F0709F407CD08F0C7
:1046A00068CF023C1C4509F4D6CCF701008111818A
:1046B000992309F442CDC8010E94D210D82E682F48
:1046C000C8010E94CD0AB8018D2D0E94B6100E942B
:1046D0000609182FB82EF70122814581342F329513
:1046E0003F70892F82958F70C82ED12C8C3008F0A6
:1046F0005CCDF601EE56FD4C0C94CD31053F8CE5BA
:10470000180709F48CCB08F486CB063FFCE51F079D
:1047100009F0ACCE27E245EE66EE16CF1F93CF939D
:10472000DF9380913902807FA9F48091360288233B
:1047300089F080916B02D0913A02609134027091BD
:104740003502A0913702B0913802C62FC72316E078
:10475000D81304C0DF91CF911F91089590E0109776
:1047600011F0CF3F19F401968770F2CF189F900196
:10477000199F300D1124F901E55CFD4F418147136C
:10478000F2CF40814613EFCF42814111ECCF4381FC
:1047900054814A1B5B0B483C510528F78091390234
:1047A0008F70806180933902F901E05CFD4F808158
:1047B0008F708061808384E392E00E94A21DDF916C
:1047C000CF911F910C94960AAF92BF92CF92DF9235
:1047D000EF92FF920F931F93CF93DF93CDB7DEB786
:1047E00061970FB6F894DEBF0FBECDBF8C0185E098
:1047F000F801DE011D9601900D928A95E1F7F8010E
:10480000E28084E3A82E82E0B82E60913702709196
:1048100038026115710509F432C19091340240915A
:104820003502892F84238F3F09F429C120813181EA
:10483000C380D480F0903602F601E61BF70BFF2010
:1048400009F4E8C080913902582F507FE83CF10507
:1048500008F0ABC0511177C0FE2C431321C0921356
:104860001FC0E1101DC08F70806180933902C501A7
:104870000E94A21D80913902F80185838F2D6196D7
:104880000FB6F894DEBF0FBECDBFDF91CF911F9161
:104890000F91FF90EF90DF90CF90BF90AF90089571
:1048A000CD2829F0822F83238F3F09F003C180E0B8
:1048B000F82FF170DF2E80FF3CC080916B02409199
:1048C0003A0256E0841315C02D873E878D859E855C
:1048D0000E940111292F22952F702230F0F02430F0
:1048E00018F59F70F1F0F8019581907FD1F4D12CEB
:1048F0001EC090E0589FF001599FF00D1124E55C17
:10490000FD4F6181361306C06081261303C06281AA
:10491000E6120FC001968770D5CF9F7011F08823E3
:1049200031F3805E883018F3C8010E94A21DFD2C6F
:10493000A5CFEE2009F4A2CF809139028160809347
:104940003902F12C9BCF431306C0921304C0F80127
:10495000EE2009F479C0C8010E940D11882309F1E5
:10496000EE20F9F080913902803270F0209134020B
:104970003091350238872F831986DB86CA868C876B
:10498000CE0107960E94A21D86E0F801A4E3B2E0E2
:1049900001900D928A95E1F70E948E23FF24F394F3
:1049A0006DCFC8010E94A21DF9CF51110AC084E346
:1049B00092E00E94A21D86E0F50111928A95E9F726
:1049C000C0CF43130FC092130DC0E1100BC0F8010C
:1049D0008583C8010E94A21D86E0F50111928A9587
:1049E000E9F74CCFC8010E940D118823D1F2EE20C7
:1049F000C1F280913902803238F220913402309134
:104A000035023A8329831B82DD82CC828E83CE01DC
:104A10000196B8CFE83CF105F8F6FE2CEE2009F23D
:104A200043131FC092131DC08091390280FD10C036
:104A3000982F907F69F0F8018583903F31F0982F8F
:104A4000907F905F8F70892B8583C8010E94A21D83
:104A500086E0F801A4E3B2E001900D928A95E1F7B7
:104A60000DCFC8010E940D1181118ECF80913902A6
:104A7000816080933902C8010E94A21DFFCEEE2002
:104A800009F48FCFC8010E940D11F82E882309F474
:104A900088CF86E0F801A4E3B2E001900D928A95F8
:104AA000E1F780913402909135020E9401110E9439
:104AB0008E23E4CE81E08E25FBCE1F93CF93DF9330
:104AC000CDB7DEB767970FB6F894DEBF0FBECDBF88
:104AD0004B8B5C8B6D8B7E8B8F8B61111092740274
:104AE0001A8A198A85E0FE017396DE011D960190EF
:104AF0000D928A95E1F786E0FE013D96DE0117965C
:104B000001900D928A95E1F7CE0107960E94E42369
:104B1000882389F016E080916B0290913A02891304
:104B200049C067960FB6F894DEBF0FBECDBFDF91C8
:104B3000CF911F91089586E0FE013796DE01119610
:104B400001900D928A95E1F78A859B85892B11F357
:104B50008F81988589238F3FE9F220913A0230E0D6
:104B6000C90101968770992740916B024817190671
:104B700071F40E94F31710923A0210926B0286E0D1
:104B8000E4E3F2E0DF011D928A95E9F7C3CF96E0F6
:104B9000929FD001939FB00D1124A55CBD4FFE01E3
:104BA000319601900D929A95E1F780933A020E9416
:104BB000960AB0CF819FC0011124855C9D4F0E9451
:104BC000E423882309F4ADCF80916B0290E0019635
:104BD0008770992780936B029ECF0F931F93CF937B
:104BE000DF9300D000D00F92CDB7DEB78C01909349
:104BF000690380936803011580E2180720F5802F70
:104C00000E94FC1AC8010E94070B9801205E31091E
:104C10002830310510F0012B59F40F900F900F90B0
:104C20000F900F90DF91CF911F910F910C94E71A85
:104C30000F900F900F900F900F90DF91CF911F91D9
:104C40000F910C94D21A8EEF89838A831B820E9463
:104C5000EF068160782F9D838C8349815A816B8117
:104C60008D810F900F900F900F900F90DF91CF914B
:104C70001F910F910C945D250F931F93CF93DF939A
:104C800000D000D00F92CDB7DEB78C0190936903AE
:104C900080936803011580E21807E8F4C8010E94B8
:104CA000070B9801205E31092830310518F00115F5
:104CB000110571F40E94F21A802F0F900F900F903F
:104CC0000F900F90DF91CF911F910F910C94521B79
:104CD0000E94DD1AF1CF8EEF89838A8381E08B8376
:104CE0000E94EF068160782F9D838C8349815A81D1
:104CF0006B818D810F900F900F900F900F90DF912F
:104D0000CF911F910F910C945D2590E080E00E945F
:104D10004C32893E9E4F11F40C942D1180E0089581
:104D20000E94852681110AC00E94021380916503AA
:104D300084708961809365030E94641086E090E02E
:104D40000E943E3280936503803220F08770886134
:104D50008093650390916503892F817090FF04C053
:104D6000892F8695869586950C943D071F920F9204
:104D70000FB60F9211242F933F934F935F936F932E
:104D80007F938F939F93AF93BF93CF93DF93EF93D3
:104D9000FF93D091E900DF708091EC00C82FC170C3
:104DA00080FDC0E81092E9008091F000877F809339
:104DB000F00078940E94FE171092E9008091F000B4
:104DC00088608093F000CD2BCF70C093E900FF91F5
:104DD000EF91DF91CF91BF91AF919F918F917F9193
:104DE0006F915F914F913F912F910F900FBE0F9058
:104DF0001F9018951F920F920FB60F9211242F93A8
:104E00003F934F935F936F937F938F939F93AF9352
:104E1000BF93EF93FF938091E10082FF09C08091DF
:104E2000E20082FF05C08091E1008B7F8093E1006A
:104E30008091DA0080FF24C08091D80080FF20C0DC
:104E40008091DA008E7F8093DA008091D90080FF14
:104E50009DC080E189BD82E189BD09B400FEFDCF1E
:104E600081E08093900380917A03811109C00E94B0
:104E70001C050E940F068091E20084608093E2008E
:104E80008091E10080FF17C08091E20080FF13C095
:104E90008091E2008E7F8093E2008091E200806149
:104EA0008093E2008091D80080628093D80019BC82
:104EB00085E0809390038091E10084FF2BC0809176
:104EC000E20084FF27C080E189BD82E189BD89B508
:104ED000982F917080FFFBCF8091D8008F7D8093B9
:104EE000D8008091E1008F7E8093E1008091E20004
:104EF0008F7E8093E2008091E20081608093E200E7
:104F000080918703882309F447C084E0809390034D
:104F1000809190038091E10083FF27C08091E2009F
:104F200083FF23C08091E100877F8093E10082E0CE
:104F300080939003109287038091E1008E7F80938D
:104F4000E1008091E2008E7F8093E2008091E20098
:104F500080618093E20042E060E080E00E94DD0535
:104F60008091F00088608093F000FF91EF91BF91F5
:104F7000AF919F918F917F916F915F914F913F91F1
:104F80002F910F900FBE0F901F90189519BC109283
:104F9000900310927A0374CF8091E30087FD93E031
:104FA00090939003B5CF78941F921FB61F9211244F
:104FB0008F939F93AF93BF938091730390917403EA
:104FC000A0917503B09176030196A11DB11D809348
:104FD000730390937403A0937503B0937603BF910A
:104FE000AF919F918F911F901FBE1F9018951F9298
:104FF0001FB61F9211248F939F93AF93BF938091FD
:105000007203811113C08091730390917403A09176
:105010007503B09176034196A11DB11D8093730372
:1050200090937403A0937503B0937603BF91AF91EF
:105030009F918F911F901FBE1F901895CDB7DEB71F
:10504000E2970FB6F894DEBF0FBECDBF84B7877F5F
:1050500084BF0FB6F894A895809160008861809312
:105060006000109260000FBE80E890E00FB6F894E8
:1050700080936100909361000FBE85B7806885BF03
:1050800085B7806885BF88EA98E09093FD0180939A
:10509000FC010E941C050E940F068091E2008460C2
:1050A0008093E2007894809190038823A1F010917E
:1050B000E9001F709091EC00892F817090FD80E8CD
:1050C000182B1092E9008091E80083FD0E94FE17E2
:1050D0001F701093E90082E084BD93E095BD9AEFC4
:1050E00097BD80936E001092C0021092C102109280
:1050F000C2021092C3020E942D11811102C00E94AF
:10510000551087988F988FB1881F8827881F8093A4
:10511000480180914801882309F498C010926701E2
:1051200088E0809368010E94550F81110E94103021
:1051300080914801811128C086E0EDE6F1E0DE01B2
:10514000919601900D928A95E1F7FE01B196A2E445
:10515000B1E0CE01879621912D938E179F07D9F745
:105160008AE0E3E7F1E0DE01119601900D928A9565
:10517000E1F7FE013196A8E3B1E0CE010B96219153
:105180002D938E179F07D9F78091480196E08111E2
:1051900090E09093DD0286E0891B8093DC0202E4BC
:1051A00011E0E8E4EE2EE1E0FE2ED8018D918D01B4
:1051B0008F3F11F00E94AC08E016F106B1F708E34A
:1051C00011E072E4E72E71E0F72EF80181918F0172
:1051D0008F3F11F00E94AC08E016F106B1F788E1AC
:1051E000ECE0F3E0DF01282F1D922A95E9F7E4ECCB
:1051F000F2E0DF011D928A95E9F7269A0E94852642
:10520000811102C00E94021382E090E00E943E32AF
:105210008093E2020E9446119093DF028093DE02A7
:105220000E948615EFE3FCE93197F1F700C000001A
:105230000E94861580910C0380FF0CC06FEF7FEFFA
:1052400090E080E00E9470320E94970B88E080938B
:10525000670167CF83E090E00E943E320E94EF1723
:10526000259A2D9882E88093800089E180938100BF
:105270008FEF9FEF90938700809386000E94902687
:105280000E9490268091E002811138C00E948526FC
:10529000811104C00E9402130E94EB1288E090E08A
:1052A0000E944632609360037093610380936203AF
:1052B0009093630380912C03836080932C036E7F13
:1052C00071F40E94EB1288E090E00E9446326093F5
:1052D00060037093610380936203909363030E9461
:1052E00003080E94FC078091600380FF04C060E017
:1052F00086950E94881281E08093E00280914801A7
:1053000081110CC086E98093570184E9809355018F
:1053100087E68093580186E68093560149E551E07F
:1053200065E571E0A7E5B1E021E030E08D91E82F7F
:10533000E295EF70F0E0F1A08F70890101C0000FDD
:105340008A95EAF7902F90959F2191A382A1802BB7
:1053500082A3FB018191BF01E82FE295EF70F0E09D
:10536000F1A08F70890101C0000F8A95EAF7902F94
:1053700090959F2191A382A1802B82A34A175B075E
:10538000A9F68FE891E00197F1F700C0000005E071
:1053900013E065E571E0E7E5F1E02191822F829568
:1053A0008F7090E0DC0190968C9190E02F7002C09D
:1053B000959587952A95E2F78170DB019D91BD0156
:1053C000292F22952F7030E0D90190962C9130E052
:1053D0009F7002C0359527959A95E2F790E020FDE1
:1053E00092E0892BD8018D938D014E175F07A9F6A6
:1053F0008091480192E0811190E09093040382E053
:10540000891B8093E1020E94550F811102C00E9406
:10541000133089E491E090936F0380936E0360E40E
:10542000262E8091900300E112E1853009F4C1C17C
:105430000E94861581110E94E3065CE0E52E53E090
:10544000F52EE3EEF2E0D70110E000E0802EAD9003
:10545000BD90819191918A159B0509F4BEC18A2561
:105460009B25912CCC24C394D12C9601282339233D
:10547000232B09F4ACC10E94550F8823A9F099A6EB
:105480008AA6AC20BD2081E0AB2809F480E08BA780
:105490000E94EF068160782F9DA78CA749A55AA589
:1054A0006BA58DA50E945D25000F111FF801ED5120
:1054B000FD4F80819181C826D926D182C0820E9469
:1054C000550F80912B03882309F464C080912A032F
:1054D000E0916003E695E81BE0932603823009F033
:1054E00093C1F0E0E250FE4FE4910E2F10E076EE13
:1054F000C72E7EE0D72E80912703882361F010927B
:1055000027030E94A30F90932503809324031092F6
:105510002903109228030E94A30FE0912403F09125
:1055200025039C012E1B3F0B2F3F3F4798F52091F1
:10553000FD022223B1F01092FD022091FB02309176
:10554000FC02821B930B8F3F9F4758F4205D3A4823
:105550003093FC022093FB0280912C03886080939F
:105560002C03A0902803B0902903E00FF11FF093C3
:105570002503E093240384E293E0F60109958091EA
:10558000280390912903892B29F4AB2819F081E095
:105590008093FD0202E013E075E5A72E71E0B72EBF
:1055A000E7E58E2EE1E09E2EF5E0CF2EF3E0DF2E34
:1055B000412C312CA4E06A2E712CD601ED916D01A5
:1055C000EE0FEE0FD4012D914D01A22FA295AF70D9
:1055D000B0E090968C9190E02F7002C095958795E1
:1055E0002A95E2F781709927D5014D915D01A42F8D
:1055F000A295AF70B0E090962C9130E04F7002C051
:10560000359527954A95E2F7A9014170552720FF66
:1056100002C042E050E0842BE82BD6011197EC93B6
:1056200050900403530CEF70F0E0E854FE4F80817B
:10563000F8019081890F808320E0843064F0E52DAB
:10564000F0E0E250FD4F80818F5F808360E0852D28
:105650000E94621C21E0D8018C918D3F64F4E52DFD
:10566000F0E0E250FD4F80818150808361E0852D24
:105670000E94621C21E0F8018081082E000C990B29
:10568000B3010E949731D8018D938D01422AB1E078
:105690003B1214C111F00E946E0A0E94780F909183
:1056A0000703891721F0809307030E94FD0A809168
:1056B0009003843009F0B5CE83E08093E9008091B7
:1056C000E80082FFAECE8091E80090E085FF0CC03C
:1056D0000E943B0560E2C62ED12C8E010F5F1F4F4A
:1056E000882309F4F8C091E08091E8008B778093DB
:1056F000E800992309F495CE00916A0310916B0399
:1057000089810115110509F4F4C08E3F09F089C1A2
:105710008A81833020F08550833008F082C1EA818D
:10572000EE3008F07EC1F0E0E256FD4CCE0101966D
:105730000C94CD3180919003843049F180E00E9437
:105740003D0780E00E94FD0A10927203E8E1F0E05C
:105750000FB6F894A895E09360000FBE2092600009
:1057600083B7817F846083BF83B7816083BF789470
:10577000889583B78E7F83BF0FB6F894A8958091E4
:105780006000886180936000109260000FBE80917D
:105790008603882371F00E948615ECE0F3E0819186
:1057A0009191892B09F0BFC324E233E02E173F0704
:1057B000B1F780919003853009F4BCCF0E94F317B4
:1057C0000E9490260E94780F0E94FD0A31CE939489
:1057D000CC0CDD1C3AE0931248CE0F5F1F4F0C300B
:1057E000110509F033CE8FEF8EA78FA718AA0E945C
:1057F000EF068160782F9AAB89AB4EA55FA568A9AB
:105800008AA90E945D255BCE863059F4F0E0E55010
:10581000FE4FE4910E2F10E066EDC62E6EE0D62E00
:105820006ACE893061F4E695F0E0E850FE4FE491ED
:105830000E2F10E057E2C52E5EE0D52E5CCE8F30E5
:1058400061F4E695F0E0EB50FE4FE4910E2F10E08E
:1058500045E9C42E4DE0D42E4ECE853159F4F0E00A
:10586000EE50FE4FE4910E2F10E03EE0C32E3DE0DF
:10587000D32E41CE8831D9F0833249F4E0EFF1E004
:10588000059114912DE7C22E2EE0D22E34CE04EFD6
:1058900011E091E4C92E9CE0D92E843209F42BCE7C
:1058A00000ED17E0BFECCB2EB6E0DB2E24CE08E2F5
:1058B00010E08EE7C82E8CE0D82E1DCE3324339412
:1058C0007CCE8091F100F80181938F01F1E0CF1A35
:1058D000D10809F408CF8091E80085FDF2CF8091CE
:1058E000E8008B778093E8000E943B05882399F3BA
:1058F000FACE8B3009F429C2B8F5853009F4BDC061
:10590000D0F4823009F47CC030F4813009F474C0E2
:105910008FEF898386C0833009F4A0C08430C1F73B
:105920004C816B818A810E9487109827892798274C
:105930009E838D8376C0873009F4ADC008F4A8C07B
:10594000883009F4EAC0893019F7809165030E9414
:105950006410609160037091610380916203909183
:1059600063030E946F115DC0803109F43EC1C0F530
:105970008D3009F40BC108F406C18E3009F40AC158
:105980008F3031F68091660390916703892B09F47B
:1059900048C0EC80F12CEDE1EE16F10408F041C0B6
:1059A000CA80DB80DC24CD24DC248E010F5F1F4FF6
:1059B000E00EF11EC601895F9D4FE016F10689F1E8
:1059C000F9EFCF16F1E0DF0628F4D80114966C91B8
:1059D0000E9452320F5F1F4FBFEFCB1ADB0AEACF94
:1059E000823109F407C108F403C1833109F42CC1E1
:1059F0008E3F09F08DCF93CE1A8289E08B8311C040
:105A00008A81823009F4A5C2833081F0813009F0A7
:105A10007FCF0E94E3060E94D3316B837C838D830A
:105A20009E83CE0101960E949605FBCC8091660371
:105A300090916703892BA9F3FE013196D7018C91D0
:105A400011969C91B2E0EB0EF11C92838383329607
:105A500024E2E21623E0F20689F7E3CF8A8182305E
:105A600009F056CF6B817C818D819E810E94D3315C
:105A700086E290E00E945232D4CF2D813E813227BF
:105A8000232732274C816B818A810E94BC0FC9CFAA
:105A90000E94F10FC6CF8A81893061F48B8133E097
:105AA000839FC00111246FEF70E00E948331862F25
:105AB0000E94E1078A818138C1F060F4803809F0E2
:105AC000B0CF20E04B8160916203809161030E941E
:105AD0008111A7CF8238E9F0833809F0A2CF20E006
