:100000000C944C030C945F2A0C9484030C9484038A
:100010000C9484030C9484030C9484030C94840344
:100020000C9484030C9484030C947B240C94372448
:100030000C9478250C9484030C9484030C9484030E
:100040000C9484030C9484030C9484030C94840314
:100050000C9484030C9454250C9484030C94840312
:100060000C9484030C9484030C9484030C948403F4
:100070000C9484030C9484030C9484030C948403E4
:100080000C9484030C9484030C9484030C948403D4
:100090000C9484030C9484030C9484030C948403C4
:1000A0000C9484030C9484030C9484036800000073
:1000B00035001E001F002000210022002300000048
:1000C000690000002B0014001A000800150017003A
:1000D000000000006A00000039000400160007005C
:1000E00009000A00000000006B000000E1000000B1
:1000F0001D001B0006001900050000006C00000038
:10010000E000E200E30001512C002C0000000000A0
:100110002900000000003A003B003C003D003E008A
:100120003F00000024002500260027002D002E009F
:100130004C002A0049004B001C0018000C00120063
:1001400013002F00300031004C004E000B000D005A
:100150000E000F0033003400000028004A004D005C
:10016000110010003600370038000000E5000000E4
:100170005200000001512C00E600E70000000000E2
:10018000E400500051004F004000410000004200D8
:10019000430044004500460047004800C35C00009F
:1001A0000100010001000100010001000100000048
:1001B000C45C000001000100010001000100010019
:1001C000000000000100000001000100010001002A
:1001D000010001000000000001000000010000001B
:1001E0000100010001000100010000000100000009
:1001F00001000100010001000100010000000000F9
:10020000C15C00000000C65CC75CC85CC95CCA5C1D
:10021000CB5C0000010001000100010001000100B1
:1002200001000100010001000100010001000100C6
:1002300001000100010001000100010001000100B6
:1002400001000100010001000000010001000100A7
:100250000100010001000100010000000100000098
:100260000100000001000100010001000000000089
:100270000100010001000100010001000000010077
:100280000100010001000100010001000100000067
:100290000100010001000100010001000100000057
:1002A0000100000001000100010001000100010047
:1002B0000000000001000000010001000100010039
:1002C000010001000000000001000000010000002A
:1002D0000100010001000100010000000100000018
:1002E0000100010001000100010001000000000008
:1002F00001000000000001000100010001000100F8
:1003000001000000010001000100010001000100E6
:1003100001000100010001000100010001000100D5
:1003200001000100010001000100010001000100C5
:1003300001000100010001000000010001000100B6
:1003400001000100010001000100000001000000A7
:100350000100000001000100010001000000000098
:100360000100010001000100010001000000010086
:1003700001000100010001000100010000047F3FB5
:100380001F643214643214783C1E1E140A050001E6
:100390000101010101010101020202020202020245
:1003A0000203030303030303030404040404040417
:1003B00005050505050606060606070707070708DB
:1003C000080808090909090A0A0A0B0B0B0C0C0C8E
:1003D0000D0D0D0E0E0E0F0F0F1010111111121228
:1003E00013131414151516161717181819191A1AA5
:1003F0001B1B1C1D1D1E1E1F202021222223242406
:10040000252626272829292A2B2C2D2D2E2F303141
:100410003232333435363738393A3B3C3D3E3F4053
:100420004142434445464748494A4C4D4E4F50513E
:100430005354555658595A5B5D5E5F6162646566F8
:1004400068696B6C6D6F7072737577787A7B7D7E7F
:100450008082838587888A8C8E8F91939596989ACF
:100460009C9EA0A2A3A5A7A9ABADAFB1B3B5B7BAE7
:10047000BCBEC0C2C4C6C9CBCDCFD1D4D6D8DBDDBB
:10048000DFE2E4E7E9EBEEF0F3F5F8FAFDFFFFAAAF
:100490007F55400102030C0D0E0F00070605040BEB
:1004A0000A09082223252628292A2C2D2F30323309
:1004B0003536383A3B3D3E4042434547494A4C4E2B
:1004C0005051535557595A5C5E6062646668696B57
:1004D0006D6F71737577797B7D7F81838587898A5D
:1004E0008C8E90929496989A9C9E9FA1A3A5A7A863
:1004F000AAACAEAFB1B3B4B6B8B9BBBCBEBFC1C293
:10050000C3C5C6C7C9CACBCCCDCED0D1D2D2D3D425
:10051000D5D6D7D7D8D9D9DADADBDBDBDCDCDCDC43
:10052000DCDDDDDDDDDCDCDCDCDCDBDBDBDADAD911
:10053000D9D8D7D7D6D5D4D3D2D2D1D0CECDCCCB93
:10054000CAC9C7C6C5C3C2C1BFBEBCBBB9B8B6B4B1
:10055000B3B1AFAEACAAA8A7A5A3A19F9E9C9A9841
:10056000969492908E8C8A89878583817F7D7B7912
:10057000777573716F6D6B6968666462605E5C5AF3
:100580005957555351504E4C4A4947454342403EB6
:100590003D3B3A3836353332302F2D2C2A29282648
:1005A00025232205010980A101850319012AB7002D
:1005B000150126B700950175108100C0050C0901D1
:1005C000A101850419012AA002150126A0029501A6
:1005D00075108100C005010906A101050719E02970
:1005E000E7150025019508750181029501750881BF
:1005F000010507190029FF150026FF00950675085B
:1006000081000508190129059505750191029501DB
:1006100075039101C009023B00020100A0FA090420
:100620000000010301010009211101000122400025
:10063000070581030800010904010001030000000F
:100640000921110100012232000705820320000167
:10065000120100020000000810CB6A120001010222
:10066000000120034B0042004F002D0035003000F8
:100670003000300020005200650076002E0020007F
:10068000310000000E034B00650065006200690048
:100690006F0000000403090411241FBECFEFDAE04D
:1006A000DEBFCDBF04B603FE18C08091A0039091B9
:1006B000A103A091A203B091A3038730904BA74060
:1006C000B04B59F41092A0031092A1031092A20310
:1006D0001092A303E0E0F8E3099511E0A0E0B1E097
:1006E000EEE1F9E502C005900D92A63EB107D9F7FB
:1006F00023E0A6EEB1E001C01D92A03AB207E1F7F7
:100700000E949F250C94772C0C940000E8EDF0E0FB
:1007100080818E7F80831092E2001092DA00109226
:10072000E100A0EEB0E08C9181608C9380818F77A6
:10073000808319BCA7EDB0E08C918E7F8C93808173
:100740008F7E80831092860308952091E40030917B
:10075000E50095E6A9012091EC00822F817020FF31
:1007600006C08091E80080FF06C080E008952091D7
:10077000E80022FD1AC080919303882389F0853018
:1007800089F08091EB0085FD0FC02091E40030914D
:10079000E50042175307F9F29150E1F684E008951D
:1007A00082E0089583E0089581E00895EF92FF923A
:1007B0000F931F93CF937C018B010E94A503C82F39
:1007C000811117C08091E80085FD0BC08091E80081
:1007D0008E778093E8000E94A503882399F3C82FA1
:1007E00008C0F70181917F018093F1000150110948
:1007F00049F78C2FCF911F910F91FF90EF900895A3
:100800008091950387FF13C08091E80082FF06C0A6
:100810008091E8008B778093E80004C08091930377
:100820008111F2CF0895809193038823D9F38091A9
:10083000E80080FFF8CF8091E8008E77ECCF982F0A
:100840009093E900242F762F50E0891731F07091B2
:10085000EC002091ED005091F00021FD07C09F5F5A
:10086000973071F78093E90081E008953091EB00B3
:100870003E7F3093EB003091ED003D7F3093ED00F3
:100880003091EB0031603093EB007093EC002093DB
:10089000ED005093F0002091EE0027FDE0CF80E0C6
:1008A0000895CF92DF92EF92FF920F931F93CF9311
:1008B000DF93C8EDD0E088818F7E8883E7EDF0E09C
:1008C00080818160808384E082BF81E080938603A1
:1008D00088818E7F888302EE10E0F80110821092EA
:1008E000DA0081EEC82ED12CF601108288818F7734
:1008F000888388818068888388818F7D888319BCFC
:100900001092930310929403109292031092910309
:1009100090EEE92EF12CF70180818B7F8083888116
:100920008160888342E060E080E00E941F04F6015D
:1009300080818E7F8083F8018081816080838081C7
:1009400088608083F70180818E7F808388818061C9
:100950008883DF91CF911F910F91FF90EF90DF90EF
:10096000CF900895FC0180919B0390919C03861782
:100970009707A0F06115710529F49091E8009E7722
:100980009093E80090E06115710551F4911108C051
:100990008091E80082FF34C080E00895BC01F2CF6E
:1009A000809193038823C1F18530C1F18091E800E3
:1009B00083FD30C08091E80082FDEACF8091E8009D
:1009C00080FFE1CF8091F3002091F200382F611574
:1009D000710519F02830310558F091E028303105C3
:1009E00009F090E02091E8002E772093E800CBCF2B
:1009F00081918093F100615071092F5F3F4FE7CFE4
:100A000080919303882341F0853041F08091E80084
:100A100083FFBECF81E0089582E0089583E00895CA
:100A20000895089508958091880308959C014FB713
:100A3000F89480917F0390918003A0918103B091FD
:100A400082034FBF821B930B08952FB7F8946091D8
:100A50007F037091800380918103909182032FBF67
:100A600008952FB7F89480917F0390918003A0910F
:100A70008103B09182032FBF089520917C033091B0
:100A80007D032817390771F090937D0380937C03D1
:100A9000E0917A03F0917B03309721F00084F18597
:100AA000E02D099408952091780330917903281757
:100AB000390771F09093790380937803E0917A037A
:100AC000F0917B03309721F00680F781E02D0994A7
:100AD0000895FC01680F791F8FEF91E32191822720
:100AE00028E030E087FF09C0880F892721503109AD
:100AF000C9F7E617F70791F70895880FF7CF8F9298
:100B00009F92AF92BF92EF92FF920F931F93CF935A
:100B1000DF938430B8F5811136C0909180009F77C3
:100B2000909380002D98A0918600B0918700282F87
:100B300030E00E94E32B23E030E040E050E00E94F0
:100B4000B32B89019A0180918600909187006CE017
:100B500070E00E948B2B60177107D8F0C80169E024
:100B600070E00E948B2B7093890060938800DF9166
:100B7000CF911F910F91FF90EF90BF90AF909F90FA
:100B80008F90089583E0909180009068909380000A
:100B9000CACF8091860090918700E0908600F09007
:100BA0008700E0918600F0918700C6E0D0E0BE01AA
:100BB0000E948B2B060F171F211D311D4801590163
:100BC00085E0880C991CAA1CBB1C8A95D1F7C7012B
:100BD000BE010E948B2B9F0150E040E0260F371F83
:100BE000411D511DC501B4010E94B32B49015A0199
:100BF000E0918600F0918700CA01B9010E947B2B29
:100C00009B01AC01DF010E94F92B9B01AC01C501E6
:100C1000B4010E947B2B2FE0969587957795679579
:100C20002A95D1F7009186001091870030E020E0EE
:100C3000061717072807390708F095CF6091860037
:100C40007091870090CFFA01811101C0FB010994D6
:100C5000ECE3F3E0118282818460828308958091C5
:100C60007203982F9E7F29F48170826080937203B3
:100C700008958A34E8F381708864F8CFAF92BF9208
:100C8000DF92EF92FF920F931F93CF93DF93082F82
:100C9000162FE901E42FF0E0E257FC4F611110C07C
:100CA000E4915E2F4E2F4983E8835A83DF91CF91E1
:100CB0001F910F91FF90EF90DF90BF90AF9008953C
:100CC000E62EF12C4491D42EE42FF0E026E0829F12
:100CD000C00111242FEF30E0B9010E948B2B802F2F
:100CE00090E0880F991F55E5569FD001579FB00D92
:100CF00011248A1B9B0B982F990F890F5901AE184D
:100D0000BF08AE9ED001AF9EB00DBE9EB00D1124A7
:100D10005B2F189F80011124012F11275901A01A60
:100D2000B10AAE9E8001AF9E100DBE9E100D112423
:100D30005901A81AB108AE9CC001AF9C900DBE9C91
:100D4000900D1124892F9927281B390B2E9FC00144
:100D50002F9F900D3E9F900D1124E92F6230710559
:100D6000A1F050F46115710509F49DCF6130710552
:100D700081F0EB2F512F97CF6430710569F080F02F
:100D80006630710509F48FCFF4CFE42F4B2F592F24
:100D90008ACFE42F412F87CFEB2F542F492F83CFBA
:100DA0004B2F5D2DE12F7FCF80E00895789408953B
:100DB000F894E82FE295EF70F0E031A1282F2F7022
:100DC00081E090E001C0880F2A95EAF7982F90956E
:100DD000932391A392A1892B82A30C94D606909180
:100DE000F40292FF06C0282F28712830F9F4877F7B
:100DF000846093FF06C0282F28712831F1F4877E84
:100E000084612091F50220FF06C0382F38713830F8
:100E1000D9F4877F816021FF06C0282F28712831EF
:100E2000D1F4877E816194FD877E0895282F2471F7
:100E30002430F9F68B7F8860DCCF282F2471243191
:100E400001F78B7E8861DDCF382F3171313019F792
:100E50008E7F8860E0CF282F2171213121F78E7E8F
:100E60008861E1CFCF93DF93EC0182389105A9F13E
:100E7000D8F58133910509F496C048F5893291057A
:100E800009F48AC08A9709F495C0C11522E5D207F2
:100E900008F0B6C0C11531E5D30708F026C1C83E39
:100EA000D10508F09CC0C03ED10560F5C83AD10517
:100EB00008F087C0C53AD10508F0EFC0C130D105B0
:100EC00009F12097F9F0C430D105E0F440C0853332
:100ED000910509F45AC0C997C1F68091F402837054
:100EE00089F0C0EED0E00EC0833E910599F170F418
:100EF000803E910501F1823E910539F68091F40220
:100F000082FD21C0CE01DF91CF910895863E9105EB
:100F100061F1873E910571F1843E910509F0B5CFED
:100F20008091F50281FFEECF8091F402C7EED0E010
:100F300084FD0DC0E7CF8091F40280FD07C1909140
:100F4000F50290FFDFCFC3EED0E084FFDBCFD0E02F
:100F5000C0E0D8CF8091F40282FDFBC09091F502F1
:100F600090FDBFCF84FFCECFF2CF8091F40283FDFE
:100F7000DDCFC8CF8091F40283FDEEC09091F502E1
:100F800091FFF0CFC4EED0E0BDCF8091F40285FF99
:100F9000B9CFC9E2D0E0B6CF8091F40285FFB2CFDD
:100FA000C5E3D0E0AFCF8091F40286FFABCFCAE2B9
:100FB000D0E0A8CF8091F40286FFA4CFC1E3D0E0B7
:100FC000A1CFCF3BD10518F6C85AD0E0CC0FDD1F1A
:100FD000C058DE4F0990D881C02DD46493CFC1157D
:100FE00040E5D40708F064C0C11580E4D80708F0D4
:100FF0005CC0CE019A9581159F4108F483CFA7CF9D
:10100000C11536E5D30718F5C11545E5D40708F035
:1010100084C0C11584E5D80708F07AC09C2F969546
:1010200096959E0123703327C115D34508F462C0FD
:10103000C1E0D0E002C0CC0FDD1F2A95E2F730E21C
:10104000939FC0011124C82BD92BDA685BCFC1153F
:101050008AE5D80778F4C11599E5D90708F068C082
:10106000C11528E5D20708F472CFDC2FCC27C06F5A
:10107000D06A48CFCE0190568115904208F067CFD4
:101080008D2F8F710E94EF0690E0982F8827882778
:101090009F719C012C2BE90149C0C55AD0E0C3586F
:1010A000DE4FC881D0E0D0642DCFDF70D06A2ACF68
:1010B000CE01E4E096958795EA95E1F783702C2FB1
:1010C00026952695237040E2249F90011124382B09
:1010D0008C2F8370C1E0D0E002C0CC0FDD1F8A9559
:1010E000E2F7C22BD32BDC680DCFDC2FCC27C16FEE
:1010F000D06A08CFC1E0D0E002C0CC0FDD1F2A9536
:10110000E2F720E2929FC0011124C82BD92BEBCF2C
:10111000DC2FCC27C46FD06AF5CE8C2F0E94EF064F
:10112000C82FD0E0DC2FCC27CC27DF71D062EACEED
:101130008C2F8F700E94EF0634E0D695C7953A95B4
:10114000E1F7CF709C2FEC01D069DCCEC9E3D0E091
:10115000D9CEC2EED0E0D6CEC6EED0E0D3CE0C943F
:10116000250580918402882331F010928402109228
:1011700083021092820208958095909181029823B3
:101180009093810208951092770210927602109245
:10119000750208958091740281111092740208956D
:1011A000EAEEF1E09191891303C0DF0111971C92DF
:1011B00091E0E03FF907B1F70895AAEEB1E0EFEF53
:1011C00090E02D91821751F0EF3F19F4211101C0E9
:1011D000E92F9F5F9630A9F7EF3F09F408950E2E8F
:1011E000000CFF0BE851FE4F82830895809173023B
:1011F00090914202981301C008958F5F8770FACFD3
:10120000AF92BF92CF92DF92EF92FF920F931F9314
:10121000CF93DF93C090F002D090F102E090F20201
:10122000F090F3024091850250918602609187020E
:1012300070918802C42AD52AE62AF72ACFE1D0E0A5
:10124000082F10E02AE0929F000D111D112498E74D
:10125000A92EBC2ED701C6010C2E04C0B695A795A9
:10126000979587950A94D2F780FD0FC0219788F74C
:10127000B12C8B2DDF91CF911F910F91FF90EF90AB
:10128000DF90CF90BF90AF900895AC9EF001AD9EDF
:10129000F00D1124E00FF11FEE0FFF1FE455FF4F7B
:1012A000859194910E943207019701F3E2CFCF9389
:1012B000DF93EC010E940009EC2FF0E09AE0D99F47
:1012C000E00DF11D112498E7899FE00DF11D112417
:1012D000EE0FFF1FE455FF4F85919491DF91CF9161
:1012E0000C9432072AE0929F800D1124982F97705A
:1012F00086958695869525E0829FF0011124EF5012
:10130000FE4F50E040E080E0219130E0092E02C025
:10131000369527950A94E2F721703327042E01C0F1
:10132000220F0A94EAF7822B4F5F5F4F4530510539
:1013300059F708952AE0929F800D1124982F9770F5
:1013400041E001C0440F9A95EAF786958695869507
:1013500095E0899FF0011124EF50FE4F90E080E06E
:1013600070E05191DF0111979B01082E02C0369564
:1013700027950A94E2F72170219525272423252714
:101380002C9301968530910561F70895FC018081C9
:1013900091810E94570992959F70963091F058F470
:1013A000925F9F70923058F4803F19F030F4883E7D
:1013B00030F481E008959A5FF4CF843FD1F380E068
:1013C0000895883EB0F3813FD1F7F3CF9091480163
:1013D000992329F081FD02C02E9A08952E98089530
:1013E00080938303709385036093840380919303B8
:1013F000843001F582E08093E9008FEF9091E8005E
:10140000815095FD06C095ED9A95F1F70000811188
:10141000F5CF8091E80085FF0DC050E040E063E02B
:1014200070E083E893E00E94D6038091E8008E7715
:101430008093E8000895BC0184E00C94F009BC019D
:1014400083E00C94F009CF93DF93EC0181E080936B
:10145000E9008FEF9091E800815095FD06C095ED71
:101460009A95F1F700008111F5CF8091E80085FF92
:1014700014C050E040E068E070E0CE010E94D60366
:101480008091E8008E778093E80088E0FE01A9E86B
:10149000B3E001900D928A95E1F7DF91CF91089525
:1014A00081E08093E00080E28093D8001092C90030
:1014B0008FE19EE40197F1F700C0000087E090EB18
:1014C000DC018093A0039093A103A093A203B093A7
:1014D000A30388E19CE00FB6F894A8958093600080
:1014E0000FBE90936000FFCFCF92DF92EF920F93E9
:1014F0001F93CF93DF93CDB7DEB7E0970FB6F89485
:10150000DEBF0FBECDBF609168018091720380FF86
:101510004BC0E3E9F4E09E012F5F3F4F8E010F5C6B
:101520001F4FC901A4914A2F50E0DA01AA0FBB1F37
:10153000A40FB51FAE5BBC4FCD90DD90EC90D901F0
:10154000CD92DD92ED929D013196A017B10751F732
:101550002091670143E0249F800D911D11246E9A14
:101560002EB12F7B3EB130645FB7F894FC01649FCD
:10157000E00DF11D1124BF018617970741F55FBFEC
:10158000EFE5F4E03197F1F700C00000E0960FB608
:10159000F894DEBF0FBECDBFDF91CF911F910F91A9
:1015A000EF90DF90CF9008958091690190916A014A
:1015B00023E0829FF0011124EE5BFC4F891708F0B5
:1015C000A8CF1182108212828F5F3396F7CFDC0191
:1015D0004D91CD01E8E03EB9000000C047FF2EB9B3
:1015E000440F000000C000C000C02EB900C0EA9542
:1015F00091F7C2CF0F931F93CF93DF93EC0110E0CD
:1016000000E090916B019017110609F06CF40E94B4
:10161000740A8C8190E00196817099278C83DF9108
:10162000CF911F910F91089520916901A801420F58
:10163000511D9A01220F331F240F351F2E5B3C4F83
:101640004C816091740380917303969590171106F5
:1016500051F04CF0442349F0409175030E943E063E
:101660000F5F1F4FCECF4423B9F340E0F7CF8F92E7
:101670009F92AF92BF92CF92DF92EF92FF920F9321
:101680001F93CF93DF93EC014C81042F10E098015E
:10169000D8010E94E32B9B01AC010E94F92B4B0166
:1016A0005C01E0E2F0E0E01BF10BA5E5B0E0AC018D
:1016B0009B010E94F92B6B017C019F01DF010E94BD
:1016C000DB2B9B01AC010E94042C9B01AC01280D7B
:1016D000391D4A1D5B1DC701B6010E94B32BF22EB6
:1016E000822F90E039E23F1560F143E0249F9001A2
:1016F000112435952795122F109500E085E5E82EE9
:10170000EF1880916B01081758F10E94740A9C81B0
:1017100081E0992319F0903219F48FEF80936601DC
:1017200080916601890F8C83DF91CF911F910F917A
:10173000FF90EF90DF90CF90BF90AF909F908F90F1
:10174000089525E530E0B901681B790B9B01220F54
:10175000331F260F371F37FFCCCF2F5F3F4FC9CF27
:101760008E2D01FD8F2D20916901622F600F77274B
:10177000771F9B01220F331F260F371F2E5B3C4F15
:10178000412F609174030E943E060F5FBACFEF9223
:10179000FF920F931F93CF93DF93EC018C81811104
:1017A00009C081E08C831092400392E09093650120
:1017B000809364018091690190916A0123E0829F86
:1017C000F0011124EE5BFC4F891768F110E003E093
:1017D00060916B01161768F10E94740A8091640190
:1017E00020914003280F2093400390916501980FAA
:1017F00090936501191654F4022E000C330B40919E
:101800006B014150550B2417350734F081958093B7
:101810006401813009F41C82DF91CF911F910F91F7
:10182000FF90EF9008951182108212828F5F33969D
:10183000CBCFE12EF12C70E0C7010E949F2B2091AD
:101840006901820F482F50E020914003022E000CC6
:10185000330BE216F306BCF020916501022E000C5A
:10186000330B2E153F057CF0809F900111242E5BD9
:101870003C4F4091750360917403809173030E9403
:101880003E061F5FA5CFFA01EE0FFF1FE40FF51F05
:10189000EE5BFC4F118210821282F3CF9F92AF92C7
:1018A000BF92CF92DF92EF92FF920F931F93CF934D
:1018B000DF93EC018A81BB24BA9480FD02C0BB2473
:1018C000B394A0906B018C81811109C081E0B812A2
:1018D00025C08FEF8A0D80933F0381E08C83F12C2C
:1018E000E12CEA14F0F00E94740A80913F0391E029
:1018F000B9125BC0811154C080916B0181508093FB
:101900003F031C82DF91CF911F910F91FF90EF90C9
:10191000DF90CF90BF90AF909F90089510923F03BB
:10192000DCCF009169010E0D1F2D111DC801880F1C
:10193000991F080F191F0E5B1C4FF80111821082AE
:10194000128234E0C32ED12C912C80913F03890D5B
:10195000813114F18F70082E000C990B8E159F05A4
:1019600091F4809175038C9DA0018D9D500D1124E3
:1019700055954795559547959801609174038091C9
:1019800073030E943E069B0CF1E0CF1AD108E9F6E2
:101990008FEFE81AF80AA5CF87FFDDCF8A0DDBCFDE
:1019A000815080933F03BC82ADCF90E0019660915F
:1019B0006B0170E00E949F2B80933F038C83A2CF2A
:1019C000EF92FF921F93CF93DF93EC0110E0EE2490
:1019D000EA94F12C60916B01161770F00E94740A62
:1019E0009A818C8190FF27C08F5F8C83DF91CF918C
:1019F0001F91FF90EF90089520916901422F410FB0
:101A00005527551FCA019A01220F331F280F391F6E
:101A10002E5B3C4F70E0C7010E949F2B962F8C815C
:101A20004091750360917403199F800D11240E94E9
:101A30003E061F5FCFCF8150D8CF9091720390FFA9
:101A400014C09091690120916A0133E0939FF001E5
:101A50001124EE5BFC4F921710F00C94740A8183F2
:101A6000608342839F5F3396F6CF08950F931F9351
:101A7000CF93DF9300D00F92CDB7DEB78C0180916A
:101A8000410381110AC09E012F5F3F4F4FEF6FEF5F
:101A90000E943E068A8180934103F801648161308F
:101AA00069F08091410340E0662361F040E06230DC
:101AB00011F44091410380E060E004C06091410373
:101AC00040E080E00E941D0DF801848190E00196C5
:101AD00063E070E00E949F2B84830F900F900F9023
:101AE000DF91CF911F910F910895CF93DF9300D095
:101AF0000F92CDB7DEB79091720390FF0AC09E019E
:101B00002F5F3F4F0E943E064B8169818A810E9470
:101B10001D0D0F900F900F90DF91CF910895CF93EF
:101B2000DF93EC01E2E7F3E0438162818C810E9464
:101B3000750D8C818F5F8C83DF91CF910895CF934A
:101B4000DF93EC01EC81F0E0ED55FB4F4491E2E7CF
:101B5000F3E0628181810E94750D8C818F5F8C839F
:101B6000DF91CF9108959F92AF92BF92CF92DF9273
:101B7000EF92FF920F931F93CF93DF937C015B0152
:101B80006A018091D10201E010E08A3010F40AE08D
:101B900010E0C1E0D0E0F894B501C701F601099565
:101BA000982E0E94D606911004C021960C171D078E
:101BB0006CF4892DDF91CF911F910F91FF90EF90E1
:101BC000DF90CF90BF90AF909F900895CC9F9001F1
:101BD000CD9F300D300D112490E080E045E34A9513
:101BE000F1F70000019682179307C1F7D4CF8091D7
:101BF0009302811110C08091D80080618093D80039
:101C00008AE18A95F1F700C08091D90080FF0AC06F
:101C100081E08093930281E090919302913009F0EA
:101C200080E0089582E0809393020E9486031092E0
:101C30009303F1CF0E94F70D882351F0E0917A03CE
:101C4000F0917B03309721F00190F081E02D099411
:101C500080E008950F931F930E94F70D882321F0D1
:101C60001F910F910C9425050E9425050091D20229
:101C70001091D3022091D4023091D502600F711FD0
:101C8000821F931F1F910F9108950E94F70D8111DC
:101C90000C9431050E942A0ECB010895682F86E02E
:101CA00090E00C94202C282F220F220F220F9091CD
:101CB00077039770922B90937703987F21E009F434
:101CC00020E09091770320FB90F9909377030E9496
:101CD0007F05809177030C944E0E8091770380FDF1
:101CE00013C0816080937703813019F489E0809379
:101CF0007703809177030E944E0E8091770386953B
:101D0000869586950C947F050895CF9384E090E0A6
:101D10000E940C2CC82F82E290E00E940C2C982F7D
:101D20008C2FCF91089560917203669570E04BE01F
:101D300050E089E591E00E94542C892B19F481E050
:101D400080933D030E94450E9093370380933603A2
:101D500080913E03846080933E030895CF92DF928A
:101D6000EF92FF926B017C010E942F06B701A60142
:101D700088E090E0FF90EF90DF90CF900C94322CB1
:101D8000AF92BF92CF92DF92EF92FF920F931F9389
:101D9000CF93DF9300D00F92CDB7DEB7182FF62E7A
:101DA000042FE22E9091720390FF3AC0E92FE6953E
:101DB000AE2FB0E0A054BE4F8C9180933C039E7F29
:101DC0009230E1F59E012F5F3F4F812F0E943E062A
:101DD0004B8169818A810E941D0D8091730381135B
:101DE00008C0809174038F1104C08091750380171F
:101DF00029F080913E03826080933E031093730329
:101E0000F092740300937503EE2051F06091720319
:101E10007091730380917403909175030E94AE0ECC
:101E20000F900F900F90DF91CF911F910F91FF9026
:101E3000EF90DF90CF90BF90AF900895823019F46B
:101E400000917503CACF863019F410917303C5CF82
:101E50008930D9F3893109F6E9518E2F8170D82E56
:101E6000E695F0E0E257FB4FA590B490C12CBB245F
:101E700060916B01C61618F00E94740AAECF2C2D2B
:101E800030E0A29EC001A39E900DB29E900D112441
:101E900070E00E948B2B812FD11013C0860F4091D0
:101EA0006901420F532F511D9A01220F331F240F36
:101EB000351F2E5B3C4F402F6F2D0E943E06C39472
:101EC000D7CF861BECCFE2E7F3E0438121E1421B51
:101ED00008F440E021E0628181810C94C00EE2E7C9
:101EE000F3E0438121E1420F08F44FEF21E06281EA
:101EF00081810C94C00EE2E7F3E0628121E1621B74
:101F000008F460E021E0438181810C94C00EE2E797
:101F1000F3E0628121E1620F08F46FEF21E0438179
:101F200081810C94C00EE2E7F3E0818121E04381DE
:101F3000628188500C94C00EE2E7F3E0818121E0D9
:101F400043816281885F0C94C00E80917603882360
:101F500019F081508093760360917203709173033E
:101F600080917403909175030C94AE0E809176036A
:101F7000833018F48F5F80937603609172037091C1
:101F8000730380917403909175030C94AE0E90913D
:101F9000720390FF3BC0917081112EC092609093AC
:101FA000720380913E03816080933E03662351F06B
:101FB0006091720370917303809174039091750323
:101FC0000E94AE0E60917203669570E04BE050E0A7
:101FD00089E591E00E94542C892BA9F00E942806E3
:101FE00081E08093390320E0409175036091740390
:101FF000809173030C94C00E853210F09864CFCF9B
:10200000880F982BCCCF0E94930EEACF089561E001
:102010000C94C70F809172038695815009F484E275
:1020200061E00C94C70F8091720386958F5F8532B3
:1020300008F081E061E00C94C70F9091720390FF6B
:1020400007C09695981720F0961710F40C9413106B
:102050000C940710E2E7F3E083E0808311828FEFB6
:10206000828383831482ACE3B3E012968C9112973F
:10207000836012968C9360817181828193810C942C
:10208000AE0E69EE7EEF90E080E00E943E2C60E0B4
:1020900082E090E00E94202C60E083E090E00E94CB
:1020A000202C1092850210928602109287021092C4
:1020B000880260E084E090E00E94202C60E082E2F0
:1020C00090E00E94202C60E085E090E00E94202CAF
:1020D00060E086E090E00E94202C6FEF87E090E0C7
:1020E0000E94202C40E050E0BA0188E090E00E947D
:1020F000322C60E08DE090E00E94202C40E050E027
:10210000BA0188E190E00E94322C60E087E190E023
:102110000E94202C40E050E0BA018CE190E00E9447
:10212000322C70E060E080E290E00E943E2C40E0C3
:1021300050E0BA0188E190E00E94322C0E946D0EBE
:1021400083E00E94530EE2E7F3E0808181608083A8
:1021500086950E94071021E04FEF6FEF80E00E940C
:10216000C00E8BE00E94071040E050E0BA018FE003
:1021700090E00E94322C40E050E0BA0183E190E010
:102180000C94322C90E080E00E941A2C893E9E4FE5
:1021900051F00E944110809177038470896180938F
:1021A00077030E944E0E86E090E00E940C2C8093F4
:1021B0007703803220F08770886180937703909155
:1021C0007703892F817090FF04C0892F86958695AB
:1021D00086950C947F051F93CF93DF9300D000D09A
:1021E000CDB7DEB74091C5025091C6026091C702DB
:1021F0007091C8022FB7F89480917F03909180036B
:10220000A0918103B09182032FBF841B950BA60B75
:10221000B70B11E084369105A105B10570F10E945C
:102220002A0E6E5F7F4F8F4F9F4F69837A838B8318
:102230009C83809121019091220188559D4F40916E
:10224000200150E04530510510F044E050E0BE015F
:102250006F5F7F4F0E946E2C84E090E00E94052B00
:10226000182F882351F00E9425056093C5027093B2
:10227000C6028093C7029093C802812F0F900F90DF
:102280000F900F90DF91CF911F9108954F925F9221
:102290006F927F928F929F92AF92BF92EF92FF9236
:1022A0000F931F93CF93DF937B01FB0140805180FD
:1022B000628073809FB7F89480907F039090800332
:1022C000A0908103B09082039FBF84189508A60850
:1022D000B708F4E68F169104A104B10418F4C1E024
:1022E000442329F1C82F880FDD0BFE0183E0EE0F98
:1022F000FF1F8A95E1F7E050FF4F81819281885559
:102300009D4F408150E00417150708F4A801B9015A
:102310000E946E2CCE010E94052BC82F882339F015
:102320000E942505F70160837183828393838C2F3C
:10233000DF91CF911F910F91FF90EF90BF90AF90E1
:102340009F908F907F906F905F904F9008950F9324
:102350001F93CF93DF93CDB7DEB728970FB6F894CE
:10236000DEBF0FBECDBF85E0E2E7F3E0DE011196F0
:1023700001900D928A95E1F780913C0390913D0385
:10238000A0913E038E839F83A88741E088858111B9
:1023900001C040E008E010E09E012F5F3F4F6DEC70
:1023A00072E086E00E944611811110923E03289649
:1023B0000FB6F894DEBF0FBECDBFDF91CF911F9156
:1023C0000F9108950F931F93CF93DF930F92CDB783
:1023D000DEB78091770380FF1AC086958695869533
:1023E000898341E09091BC02981301C040E001E074
:1023F00010E09E012F5F3F4F69EC72E085E00E9484
:1024000046110F90DF91CF911F910F91089580E0B9
:10241000E7CF4F925F927F928F929F92AF92BF923F
:10242000CF92DF92EF92FF920F931F93CF93DF93A0
:102430000F92CDB7DEB7C62E4A015901482E880F3C
:102440005508C2010E94052B782E882309F480C00C
:10245000C20133E0880F991F3A95E1F7FC01E05083
:10246000FF4F438150E04115510511F041E050E02C
:1024700080509F4FFC016481758168557D4FCE016E
:1024800001960E946E2CF40140815181628173811A
:102490002FB7F89480917F0390918003A0918103DE
:1024A000B09182032FBF841B950BA60BB70B84360C
:1024B0009105A105B10540F4B701C8010E94690565
:1024C0009981891709F444C00C2C000CDD08C60161
:1024D0000E94052B782E811113C0712C872D0F902F
:1024E000DF91CF911F910F91FF90EF90DF90CF90F0
:1024F000BF90AF909F908F907F905F904F90089586
:10250000C60123E0880F991F2A95E1F7FC01E050EE
:10251000FF4F438150E0E416F50608F4A701805010
:102520009F4FFC016481758168557D4FC5010E94F4
:102530006E2CB701C8010E94690599818913CDCF1E
:102540000E942505F4016083718382839383C6CF43
:10255000A701B801C5010E946E2CC0CFCF92DF92B7
:10256000EF92FF920F931F93CF93DF93CDB7DEB718
:102570002C970FB6F894DEBF0FBECDBF6B018CE079
:10258000E82EF12C09EA12E09E012F5F3F4F40EA4E
:1025900052E061E080E00E940912882349F09CE04B
:1025A000FE013196A4E9B2E001900D929A95E1F70F
:1025B0009CE0E4E9F2E0D60101900D929A95E1F7F2
:1025C0002C960FB6F894DEBF0FBECDBFDF91CF9132
:1025D0001F910F91FF90EF90DF90CF9008956F9231
:1025E0007F928F929F92AF92BF92CF92DF92EF92A3
:1025F000FF920F931F93CF93DF93CDB7DEB7A497CE
:102600000FB6F894DEBF0FBECDBF8E010F5F1F4F18
:1026100088E1D8011D928A95E9F762E4E62E61E02F
:10262000F62E680166246394712CE2E48E2EE1E0BC
:102630009E2EF70181917F018F3F09F446C0F894E7
:10264000E82FE295EF70F0E021A18F70A30102C0A6
:10265000440F551F8A95E2F7CA01922F982B91A338
:1026600092A18095892382A30E94D60600C0E8E348
:10267000F1E021E030E0B12CA12C41914F3F09F471
:1026800082C0A42FA295AF70B0E090968C9190E09C
:102690004F7002C0959587954A95E2F780FD73C00B
:1026A000C901A82AB92A220F331F8E169F0629F7BF
:1026B000F701319780818F3F11F00E94D80650EAD0
:1026C0005A95F1F7D601AD92BC92B2E0CB0ED11C77
:1026D000E8E4EE16E1E0FE0609F0ABCF48E150E099
:1026E000B80186ED92E00E94612C7C01892B41F0BB
:1026F00088E1F801A6EDB2E001900D928A95E1F72C
:102700001091EF02E114F10409F440C081E08093DC
:102710008B020E94310590938A02809389028091F6
:10272000890290918A020E941605059798F0A6EDFD
:10273000B2E0E12FF0E0EE0FFF1FE850FD4F82EE18
:1027400092E02D913D91219331938A179B07C9F710
:1027500010928B0281E090E0EF28E1F0A4960FB692
:10276000F894DEBF0FBECDBFDF91CF911F910F91C7
:10277000FF90EF90DF90CF90BF90AF909F908F90A1
:102780007F906F90089590E080E08BCF80918B02D6
:102790008111C5CF0E94F70DD82EE091EF02AE0156
:1027A000475E5F4F7A01882309F485C08CE0DA0127
:1027B0001D928A95E9F70E2F10E0000F111F0850A7
:1027C0001D4F8091D1028A3008F03FC04EEA52E19D
:1027D000B701C8010E94B30D882309F446C042E640
:1027E0005AE1B701C8010E94B30D8823F1F14BEE05
:1027F00050E1B701C8010E94B30D8823B1F142EE48
:1028000051E1B701C8010E94B30D882371F147EA75
:1028100051E1B701C8010E94B30D882331F1109234
:10282000D1028091EE0290E0880F991F4CE050E0B9
:10283000B70188509D4F0E94612C21E020939202A5
:10284000892B51F5D12C8D2D89CF80918C029091BF
:102850008D020E941605843F914008F0B7CF809109
:102860009202811112C080E079CF8091D1028F3F16
:1028700029F08F5F8093D1028A3098F20E9431054F
:1028800090938D0280938C02EACF8CE0F701119235
:102890008A95E9F710929202A091EE02B0E0AA0F99
:1028A000BB1FA850BD4F8CE0FE01799601900D92A0
:1028B0008A95E1F7C8CFF0E0EE0FFF1FE850FD4F1B
:1028C000F8948CE0A9EAB2E001900D928A95E1F7C4
:1028D0006CE070E089EA92E00E9469058093A802AA
:1028E0000E94D606F894E0913203F0E0E45DFC4FDC
:1028F000808191819A8F898F9093B7028093B602DD
:1029000062E070E0C7010E9469058093B5020E94F1
:10291000D606F894C090B802D090B902E090BA02FE
:10292000F090BB0280918E0290918F02A091900254
:10293000B0919102C816D906EA06FB06D1F0C09202
:102940008E02D0928F02E0929002F09291020E9449
:10295000F70D81110EC00E942505C61AD70AE80A94
:10296000F90AC092D202D092D302E092D402F0923D
:10297000D5020E94D606F8948091BC020E947F0581
:102980000E94D606F8948091C402882379F180FFD2
:102990000DC08091BD029091720380FF2AC09160AA
:1029A0009093720360E086950E94C70F8091C402E5
:1029B00081FF09C020E04091C0026091BF02809178
:1029C000BE020E94C00E8091C40282FF06C08091A8
:1029D000C302882321F10E94930E8091C40283FFD9
:1029E00003C081E0809339031092C4020E94D6068E
:1029F0003ACF9E7F909372030E94280680913E03F7
:102A0000816080933E03FFEF20E742E0F1502040D9
:102A10004040E1F700C000000E94740AC7CF0E9446
:102A20002806DBCF8091810290918002892B8093D0
:102A3000E80180918402882319F10E9431052091D8
:102A4000820230918302821B930B8838934110F0ED
:102A50000E94B1088091E80190918402892B8093B3
:102A6000E80120E08AEE91E0FC013191CF013111C3
:102A70002F5FF1E0803F9F07B9F721110E94B10855
:102A800048E050E068E772E088EE91E00E94612C37
:102A9000892BA9F088E0E8EEF1E0A8E7B2E0019028
:102AA0000D928A95E1F7E0917A03F0917B033097DC
:102AB00031F00280F381E02D88EE91E009940895D1
:102AC00090E080E00E94530590E080E00E943D0588
:102AD000109280020C9412156093F0027093F10230
:102AE0008093F2029093F3020C9460150F931F935E
:102AF00041E050E060E070E004C0440F551F661FE5
:102B0000771F8A95D2F7CB01BA01609570958095B1
:102B100090950091F0021091F1022091F202309113
:102B2000F30260237123822393231F910F910C944E
:102B30006C15909177028095892380937702282FD6
:102B4000277091F4282F082E000C330B92171306D0
:102B500059F09091F50292FD07C085958595859570
:102B60000E9476150C94C3080895CF93C091F50286
:102B7000C2FB992790F9981799F080FBC2F9C0938E
:102B8000F5026091F40284E090E00E94202C6C2F0A
:102B900082E290E00E94202C82E0CF910C94991563
:102BA000CF9108950F931F9341E050E060E070E0F3
:102BB00004C0440F551F661F771F8A95D2F7809176
:102BC000F0029091F102A091F202B091F3028A0119
:102BD0009B01082B192B2A2B3B2BC901B8011F91F4
:102BE0000F910C946C159091F50292FD10C098E035
:102BF000899F90011124622B609377020E94D21565
:102C00000E943105909376028093750208950C948A
:102C1000D215609385027093860280938702909309
:102C200088020C94601510928102EAEEF1E086E0D1
:102C3000DF011D928A95E9F70C9460151F93CF93DD
:102C4000DF93CDB7DEB7AA970FB6F894DEBF0FBEFD
:102C5000CDBF85E993E02091F100FC012193CF01E4
:102C6000F3E08D399F07B9F780919603833009F41B
:102C700070C0B8F4813009F447C0823009F4B1C0A3
:102C80008091E80083FF7EC2809195039091960326
:102C90009A3008F077C2E92FF0E0E758F34D0C9432
:102CA000D52B8A3009F48CC08B3009F46FC0893081
:102CB00039F780919503813219F7809199039091AA
:102CC0009A030297E8F68091E800877F8093E800F6
:102CD0008091E80082FF38C09091F3008091F2006B
:102CE000029731F48091F100813011F0863021F4A7
:102CF0008091F100809388038091E8008B77809326
:102D0000E8000E940004BCCF80919503813A09F04D
:102D1000B7CF8091E800877F8093E8008091990386
:102D200090919A03892B61F468E089E893E070E060
:102D30000E94B2048091E8008B778093E800A0CFD6
:102D400060E090E080E0F3CF809193038111C0CFE9
:102D500097CF80919503813A09F092CF80919903A2
:102D600090919A03892B09F08BCF8091E800877F9F
:102D70008093E8008091E80080FFFCCF80916C0197
:102D80008093F1008091E8008E77B9CF8091950310
:102D9000813209F075CF8091990390919A03892B24
:102DA00009F06ECF8091E800877F8093E8000E9451
:102DB00000048091970380936C010E94131660CFEA
:102DC00080919503813209F05BCF8091E800877F85
:102DD0008093E8000E940004809198038093870309
:102DE0004FCF80919503813A09F04ACF8091E80056
:102DF000877F8093E8008091E80080FFFCCF80917E
:102E00008703BECF803899F0823809F0BBC180912A
:102E100099038F70873008F0B5C18093E9008091E5
:102E2000EB0085FB882780F91092E90006C08091AD
:102E3000910390919203911182609091E800977FA5
:102E40009093E8008093F1001092F1008091E800E7
:102E50008E7794C1882309F482C1823009F092C12F
:102E600080919703811185C1809199038F702FEF15
:102E7000280F263008F086C18093E9002091EB00EE
:102E800020FF77C1933031F48091EB008062809312
:102E9000EB006FC19091EB0090619093EB0021E00B
:102EA00030E001C0220F8A95EAF72093EA001092E1
:102EB000EA008091EB008860EACF811163C1109134
:102EC00097031F778091E3008078812B8093E30044
:102ED0008091E800877F8093E8000E940004809141
:102EE000E80080FFFCCF8091E30080688093E300DE
:102EF00082E0111183E08093930344C180588230B3
:102F000008F040C180919703909198038C3D23E095
:102F10009207A1F583E08A838AE289834FB7F89408
:102F2000DE01139620E03EE051E2E32FF0E0509303
:102F30005700E49120FF03C0E295EF703F5FEF7010
:102F40008E2F90E0EA30C0F0C7968D939D932F5F4F
:102F5000243159F74FBF8091E800877F8093E800C4
:102F60006AE270E0CE0101960E94B2048091E8000E
:102F70008B778093E80006C1C096E7CF4091990314
:102F800050919A03292F33272330310509F444C087
:102F900078F52130310509F46FC08BE390E0E5E16D
:102FA000F6E02230310509F0EDC02091E800277FDE
:102FB0002093E80020919B0330919C038217930794
:102FC00008F49C0140E02115310509F064C041116D
:102FD00062C08091E80082FDC9CF8091930388236D
:102FE00029F2853019F28091E80083FFF2CFBECF3D
:102FF00021323105A9F12232310509F0C3C0411552
:10300000510509F443C04130510509F0BBC082E3CA
:1030100090E0E3EAF5E0C9CF992781309105C1F04E
:10302000009759F0029709F0ADC0E2E6F6E0E491AE
:103030008E2F90E0E2E6F6E007C0E4E9F6E0E491E6
:103040008E2F90E0E4E9F6E0009709F49BC0ADCF45
:10305000E4E8F6E0E4918E2F90E0E4E8F6E0F4CFC7
:103060004115510571F04130510509F08BC089E0DF
:1030700090E0E0E4F6E099CF82E190E0E0E5F6E070
:1030800094CF89E090E0E7E2F6E08FCF80E490E033
:10309000E5EDF5E08ACF80919303882309F466CFAC
:1030A000853009F463CF8091E80083FD5FCF809184
:1030B000E80082FD8ECF8091E80080FF84CF909160
:1030C000F3008091F2002115310519F08830910547
:1030D00050F041E0089709F040E08091E8008E77D9
:1030E0008093E80070CF44914093F10031962150D5
:1030F00031090196E8CF803809F044C08091E8009A
:10310000877F8093E800809194038093F1009ECEA6
:10311000811138C0109197031230A0F58091E8001A
:10312000877F8093E800109394030E94000411238A
:1031300011F084E005C08091E30087FDFACF81E0C3
:103140008093930342E061EC81E00E941F0442E21D
:1031500061EC82E00E941F048091930313C0809170
:103160009703813079F481E0933009F080E0809317
:1031700092031092E9008091E800877F8093E80035
:103180000E9400048091E80083FF0AC08091E8005B
:10319000877F8093E8008091EB0080628093EB0052
:1031A000AA960FB6F894DEBF0FBECDBFDF91CF91C8
:1031B0001F910895882321F00E94BC080C941215D9
:1031C0000895882339F090918102982B9093810281
:1031D0000C9412150895882309F44BC0823871F4B9
:1031E0000E941A0E81FF45C089E30E94DD080E94FB
:1031F000121589E30E94D0080C941215833859F4F3
:103200000E941A0E80FF35C083E50E94DD080E94EF
:10321000121583E5EFCF843859F40E941A0E82FF0D
:1032200028C087E40E94DD080E94121587E4E2CFDF
:103230009CEF980F913AF0F290E2980F983050F48A
:10324000877091E001C0990F8A95EAF7892F0E9453
:10325000BC08D2CF9BE5980F933020F490E080E03B
:103260000C945305885A873120F490E080E00C9448
:103270003D050895CF93C82F882309F488C082386C
:10328000C1F40E941A0E81FD82C089E30E94DD080C
:103290000E9412152FEF81EE94E021508040904063
:1032A000E1F700C0000089E30E94D008CF910C94A0
:1032B00012158338A1F40E941A0E80FD68C083E5C0
:1032C0000E94DD080E9412152FEF81EE94E021503C
:1032D00080409040E1F700C0000083E5E5CF8438EE
:1032E000A1F40E941A0E82FD52C087E40E94DD08FC
:1032F0000E9412152FEF81EE94E021508040904003
:10330000E1F700C0000087E4CFCF8CEF8C0F813A4B
:1033100068F4EAEEF1E08191C81799F121E0E03F0D
:10332000F207C9F78C2F0E94DD08C0CF80E28C0F16
:10333000883068F4C77021E030E001C0220FCA95E0
:10334000EAF780918102822B80938102AFCFEBE577
:10335000EC0FE33040F4F0E0E358FE4F808190E062
:10336000CF910C945305C85AC73188F4EC2FF0E084
:10337000EE0FFF1FE058FE4F80819181CF910C949A
:103380003D058C2F0E94D0080E941215CBCFCF9103
:1033900008951F93CF93DF93182FD0E0C0E08933B7
:1033A00011F4C0E5D0E0812F0E943A19209731F442
:1033B000812FDF91CF911F910C94EB188FE99FE043
:1033C0000197F1F700C000002197F0CF0F931F93F2
:1033D000CF93DF93C62FD42F022FFC018281882345
:1033E000A1F060939F030E94310590939E03809308
:1033F0009D03C77081E001C0880FCA95EAF7DF918D
:10340000CF911F910F910C94E11880919F03681345
:1034100035C080919D0390919E030E941605883CC3
:10342000910560F510E21D0FCD17B9F080E28C0F09
:10343000883040F4C77081E001C0880FCA95EAF770
:103440000E94DA18183048F481E09D2F977001C06F
:10345000880F9A95EAF70E94E118802F0E94C919F7
:10346000183098F4D77081E001C0880FDA95EAF738
:10347000DF91CF911F910F910C94DA18C77081E002
:1034800001C0880FCA95EAF7F3CFDF91CF911F9162
:103490000F910895811108C08EE4611101C08BE481
:1034A0000E94C91980E00895823029F489EA6111E7
:1034B000F7CF8AEAF5CF8330A9F781E56111F0CF24
:1034C00082E5EECF9F92AF92BF92CF92DF92EF92C2
:1034D000FF920F931F93CF93DF9300D0CDB7DEB74A
:1034E00082E0E82EF12C06EB12E09E012F5F3F4FA9
:1034F00044EA52E063E082E00E940912B82E882379
:1035000021F1AE014F5F5F4F6A0180E0A12C009175
:10351000F7020A0DF60111916F01202F30E0A90189
:10352000445D5C4F7A01FA019081191B912E1914A8
:10353000F4F0912F17FD90E0191B111123C0F1E059
:10354000AF1212C081110E94AF088B2D0F900F9007
:10355000DF91CF911F910F91FF90EF90DF90CF906F
:10356000BF90AF909F900895AA24A394D0CF9A942F
:10357000F70180818F5F808360E0802F0E944A1A6C
:103580008B2DD5CF1F5FF70180818150808361E053
:10359000802F0E944A1A8B2DD0CF4F925F926F924C
:1035A0007F928F929F92AF92BF92CF92DF92EF92D3
:1035B000FF920F931F93CF93DF9300D000D00F9211
:1035C000CDB7DEB77C01FC0183819481892B39F072
:1035D0001081D180812F8D218F3F09F059C50F9027
:1035E0000F900F900F900F90DF91CF911F910F913F
:1035F000FF90EF90DF90CF90BF90AF909F908F9013
:103600007F906F905F904F9008950E940009082F5F
:10361000682F89819A810E949A09E12FF0E02AE0BF
:10362000D29EE00DF11D112438E7039FE00DF11D3E
:103630001124EE0FFF1FE455FF4F05911491F70180
:103640008281882309F414C60E3BFCE51F0709F4A8
:10365000B8C008F06AC00C3B3CE5130709F486C00B
:103660000D3B8CE5180709F4AAC0043F8CE5180748
:1036700009F4ECC008F068C6093DECE51E0709F442
:10368000E1C00A3DFCE51F0709F4ECC0083D2CE54C
:10369000120709F401C610929F0304302DE51207AA
:1036A00008F0E3C00B3F3CE5130730F4C80182503B
:1036B0009C45449708F0E3C00E94850E9093F50264
:1036C0008093F4020131ECE51E0709F4A8C108F06B
:1036D00023C109302CE5120709F48FC108F0F2C0AC
:1036E00005308CE5180709F47CC108F0DDC0033013
:1036F000ECE51E0709F46BC108F06FC18091F4027C
:10370000816002301C4509F465C16091F40210919A
:10371000F50284E090E00E94202C612F82E290E08C
:103720000E94202C0E94131624C0003C9CE519071F
:1037300009F477C008F461C0013CFCE51F0709F0FB
:1037400094CF90917703892F8695869586958F5F84
:103750008F719770843008F072C0880F880F880FBF
:10376000892B809377038091770333C083E00E9495
:10377000530E80917702877009F431CFF70182816F
:10378000882309F42CCF8091F50282FD28CF82E0B6
:103790000F900F900F900F900F90DF91CF911F918E
:1037A0000F91FF90EF90DF90CF90BF90AF909F90E0
:1037B0008F907F906F905F904F900C94991580E060
:1037C000D6CF80917703982F987F79F08850809397
:1037D0007703887F91E009F490E08091770390FB74
:1037E00080F9809377030E944E0E8091770386952F
:1037F000869586950E947F05BCCF80917703982F90
:10380000969596959695933040F49F5F990F990FF2
:10381000990F8770892B809377038091770381605C
:10382000E0CF8091770380FF07C08E7F809377037E
:103830000E944E0E80E0DECF0E946D0E9ACF9093D4
:10384000770391CF27E245EE65EE29C526E241EEEA
:1038500060EE25C527E245EE64EE21C526E241EE85
:1038600062EE1DC528E241E0EFCF02368DE5180774
:1038700009F422CF063A9DE5190709F41DCF063158
:103880003CE5130709F079C4809181028A7A91E0BE
:1038900009F490E09093F0018111EFC089E20E9459
:1038A000DD080E94121565CF8091F4028062073016
:1038B0003CE5130709F48EC008F49BC08091F40224
:1038C000806488C08091F4028B7F0D309CE51907DD
:1038D00009F480C098F48091F4028E7F0B30FCE5EF
:1038E0001F0709F477C08091F4028C600C301C45EE
:1038F00008F470C08091F4028D7F6CC08091F40256
:103900008F7E0F303CE5130709F464C008F47BC0D8
:103910008091F4028F7D5EC00E3F9CE5190709F48B
:103920007AC050F50531FCE51F0709F486C098F40C
:103930008091F402837F03313CE5130709F44AC008
:1039400008F471C00E9413169091F402892F97FB1E
:1039500087F980583FC00C3F9CE5190709F445C022
:1039600008F055C08091F50281600B3F1C4509F0BD
:10397000CCCE8093F502C9CE02302DE5120709F4B2
:1039800068C0A8F401158DE5180709F452C08091AC
:10399000F502836001301D4560F38091F502982F98
:1039A000909591708E7F892B90FB81F9E2CF023642
:1039B000EDE51E0709F453C0063AFDE51F0709F4BB
:1039C00055C003301D4509F0A0CE60E043C0809192
:1039D000F40282608093F40298CE8091F4028460B5
:1039E000F9CF8091F4028860F5CF8091F502826072
:1039F000C0CF8091F4028061EDCF0E9413168091B8
:103A0000F4028068E7CF8091F402877FE3CF809152
:103A1000F5028E7FAECF8091F5028D7FAACF809187
:103A2000F4028F7BD7CF0E9413168091F4028F7718
:103A3000D1CF8091F5028C7F9CCF8091F40282FBE4
:103A4000992790F921E0922790FB82F990FB83F966
:103A5000C1CF61E08EE090E00E94202C56CE909184
:103A6000F402892F8F7E94FF8061B4CF9091F4028D
:103A7000892F8E7F90FF8160ADCF85E310CF80913D
:103A8000F001811104C089E20E94D0080ACF85E3C9
:103A9000FBCF81608093720386950E94071069CEE8
:103AA0004AE050E163E170E10E94230662CE43E107
:103AB00050E16AE070E1F8CF4CE95FE063E97FE054
:103AC000F3CF4BE75FE067E87FE0EECF43E65FE0F0
:103AD0006FE67FE0E9CF4FE65FE063E67FE0E4CFAB
:103AE00046EB5FE065EA7FE0DFCF81E0D6CF65E0BF
:103AF00082E00E941D103DCE68E086E0FACF64E1CE
:103B00008FE0F7CF67E185E1F4CF62E289E1F1CFA1
:103B100083E2C3CF0E941316FFEF24E33CE0F15091
:103B200020403040E1F700C000000E94500A81E0D0
:103B300044C380E042C3812F902F0E947209D82E87
:103B40004FC3012F0F70107F11F00295007FCC2022
:103B5000B9F0002369F080E28D0D883010F08110FB
:103B600009C080918102082B009381020E941215E6
:103B70008D2D4AC080918002082B00938002F6CFE1
:103B80008D2D0E94EB18002309F440C080E28D0DBA
:103B9000883010F0811004C0802F0E94BC0806C03D
:103BA0000095809180020823009380020E941215E4
:103BB0002DC0012F0F70107F103211F00295007F81
:103BC000882089F021E0821609F4A9C0CC2009F4EC
:103BD000B2C0BB2009F487C0F701858180FFC8CF40
:103BE0008F70858380C08091F50282FF56C0CC2003
:103BF00009F44CC0002339F080918102082B009316
:103C000081020E94121580E00E943A19E92DE850C5
:103C1000FF0B349720F40E941A0E0E94E609AA2096
:103C2000A9F08091770280FD11C0F701128285957D
:103C3000859585950E94D215C7010E94CD1A809165
:103C400077028595859585950E94761585E0F70123
:103C5000DE01119601900D928A95E1F789819A8192
:103C60000E9472099A81E981F0E02AE0929FE00DBA
:103C7000F11D112438E7839FE00DF11D1124EE0F93
:103C8000FF1FE455FF4F85919491A9CC80E00E94DD
:103C9000EB18002309F4BACF7FCFCC2041F1B1104B
:103CA00004C080918402802B1FC031E0B31211C088
:103CB00082FDACCF80918402082B081709F4A6CFAF
:103CC0000E943105909383028093820200938402C4
:103CD0009DCF85E0B812E5CF0E94B10880917402B3
:103CE000081300937402802F0E94E1188FCFB11047
:103CF00006C00E94B108802F0E94DA1887CF91E099
:103D0000B91208C080918102802309F47FCF0E94FC
:103D1000CA08EFCFE5E0BE1609F478CFEACFCC2091
:103D200029F0F5E0FB1508F471CFDDCF24E02B1569
:103D300008F46CCFE0CFBB20F1F2F9E38F12A1C100
:103D40002FEF37EE83E0215030408040E1F700C094
:103D5000000097C1812F86958695837069F0813028
:103D600009F054CF8D2D912F9370C11002C090E0B7
:103D700080E00E943D054ACF8D2D912F9370C11098
:103D800002C090E080E00E94530540CF812F8370F5
:103D900009F066C0C1103ACF8D2D82958695877047
:103DA000880F880F6D2D6F70462E512C712C612C51
:103DB000082E04C0440C551C661C771C0A94D2F7CC
:103DC00040E050E0BA01D4FE0FC04FE050E060E0A8
:103DD00070E004C0440F551F661F771F8A95D2F705
:103DE0004095509560957095812F86958695837046
:103DF000823019F1D8F40091850210918602209149
:103E0000870230918802813069F04429552966295A
:103E10007729CB01BA0160237123822393230E9467
:103E20000916F4CE402A512A622A732ACB01BA011C
:103E30006429752986299729F2CF442955296629AD
:103E40007729009185021091860220918702309196
:103E50008802CB01BA016027712782279327DFCF21
:103E60008695CC2011F0812F8170882309F4CECE65
:103E70008D2D829586958770880F880F6D2D6F70B8
:103E8000462E512C712C612C082E04C0440C551C5C
:103E9000661C771C0A94D2F740E050E0BA01D4FEC9
:103EA0000FC04FE050E060E070E004C0440F551FC9
:103EB000661F771F8A95D2F740955095609570954B
:103EC000812F869586958370823019F1D8F4009100
:103ED000F0021091F1022091F2023091F302813050
:103EE00069F04429552966297729CB01BA01602355
:103EF0007123822393230E946C1588CE402A512A75
:103F0000622A732ACB01BA01642975298629972967
:103F1000F2CF44295529662977290091F0021091A2
:103F2000F1022091F2023091F302CB01BA01602735
:103F3000712782279327DFCF1F70CC2029F0812F94
:103F40000E94D2158D2DD0CE8D2D0E94DA18812F92
:103F50000E9476155BCE8D2D92EF891609F43FC035
:103F6000981570F0E0EF8E16D1F0F1EF8F1691F00A
:103F7000CC2009F481C0B110FBCD812F8F7133C0EB
:103F800023EF821699F134EF8312F2CF8091F5027C
:103F900082FF3FC0812F8F71CC20D1F224C0CC2072
:103FA000C9F084E08B1508F431CE1F7161E070E038
:103FB00080E090E004C0660F771F881F991F1A9554
:103FC000D2F70091F0021091F1022091F2023091AB
:103FD000F302ADCF95E09B1508F418CEE6CF812F04
:103FE0008F71C110B5CF0E94D21510CE60E070E085
:103FF000CB01CC2009F47FCF1F7161E070E080E03D
:1040000090E004C0660F771F881F991F1A95D2F79A
:1040100072CF80917402CC20D9F00E94BC088091AC
:1040200077028770843041F40E94C308812F8F711A
:104030000E947615A12CEACDE4E0EB15D8F31F71B0
:10404000812F0E94D21563E0812F0E94F315F2CFD9
:1040500090918102982B90938102F4E0FB1540F43B
:104060000E94C3080E94CA0864E0812F8F71EDCFBF
:1040700081E00E949915DECFBB2039F0893309F425
:104080005FCE8D2D0E94EB18C1CD812F8F7160CF37
:1040900085E0DE01119601900D928A95E1F7F70116
:1040A000228189819A812111B0CA0E947209082F48
:1040B000B4CA053C9CE5190709F4F9CC43E95FE073
:1040C0006CE97FE0063C1C4509F4EECC78C00A3C64
:1040D000FCE51F0709F4FACC70F4083C3CE5130733
:1040E00009F4EFCC47E85FE06BE77FE0093C1C4553
:1040F00009F4DACC64C00B3CECE51E0709F4EBCC08
:1041000045EA5FE066EB7FE00C3C1C4509F4CCCC53
:1041100056C0023D2CE5120709F4F1CC98F40F3C8F
:104120008CE5180709F4E3CC08F4DFCC003DECE59E
:104130001E0709F4E1CC6EE089E0013D1C4509F45D
:10414000D8CC3DC0053D2CE5120709F4DECC58F46F
:10415000033D8CE5180709F4D5CC88E1043D1C45E6
:1041600009F49BCC2CC0063DECE51E0709F4D0CC2D
:104170000E351D4509F4FDCA22C00B352DE5120789
:1041800009F4D5CC58F401158CE5180709F4C2CC14
:104190000F3D1C45A1F40E944110EBCA0C35EDE522
:1041A0001E0709F4C6CC0D351D4549F48091F50272
:1041B00082FB882780F991E089270E94B515F701D5
:1041C000828110810181882309F4B5CC812F902F41
:1041D0000E940009D82E682F812F902F0E949A09E3
:1041E000E12FF0E02AE0029FE00DF11D112438E7F5
:1041F000D39EE00DF11D1124EE0FFF1FE455FF4F7C
:10420000859194910E943207D82E192F882EF7019C
:10421000C280B580B2943FE0B3228091770287706C
:10422000C1F0AC2CCC20B1F0892F807F803421F0FC
:1042300080E28D0D883068F08091F50282FD09C022
:1042400082E00E949915809177028770AA24A39436
:104250008111A12C912E92949FE09922FBE0F915F7
:1042600008F4D4CCE92DF0E0ED57F34D0C94D52BA8
:10427000043F2CE5120709F4E9CAA8F4093D8CE5CE
:10428000180709F4DFCA0A3D9CE5190709F4EACAD0
:10429000083DECE51E0799F426E241EE61EEC70108
:1042A0000E94E61966CA063FFCE51F0709F4D6CA54
:1042B00008F4D0CA073F3CE5130709F451C00631A2
:1042C000FCE51F0709F4DBCB8091810282720D3C73
:1042D0002CE5120709F404CC08F01BCF073C9CE541
:1042E000190709F4E9CB08F0F2CE043CFCE51F07FE
:1042F00009F4D6CB08F0DDCE033C1C4509F05FCFB6
:104300008091720380FFC5CB8E7F80937203609192
:1043100072037091730380917403909175030E94EE
:10432000AE0E0E94280680913E03816080933E037A
:104330008FEF90E7E2E081509040E040E1F700C06D
:1043400000000E94740A15CA063F3CE5130709F4F1
:1043500085CA08F47FCA073F9CE5190709F09BC985
:1043600027E245EE66EE9BCF1F93CF93DF938091BC
:104370004102807FA9F480913E02882389F08091D8
:104380007302D091420260913C0270913D02A09173
:104390003F02B0914002C62FC72316E0D81304C0D5
:1043A000DF91CF911F91089590E0109711F0CF3FCA
:1043B00019F401968770F2CF189F9001199F300D64
:1043C0001124F901ED5BFD4F41814713F2CF40818C
:1043D0004613EFCF42814111ECCF438154814A1BF8
:1043E0005B0B483C510528F7809141028F7080613A
:1043F00080934102F901E85BFD4F80818F708061FD
:1044000080838CE392E00E94CD1ADF91CF911F91BF
:104410000C94F608AF92BF92CF92DF92EF92FF9288
:104420000F931F93CF93DF93CDB7DEB761970FB68E
:10443000F894DEBF0FBECDBF8C0185E0F801DE0130
:104440001D9601900D928A95E1F7F801E2808CE3C8
:10445000A82E82E0B82E60913F0270914002611553
:10446000710509F432C190913C0240913D02892FBF
:1044700084238F3F09F429C120813181C380D480F6
:10448000F0903E02F601E61BF70BFF2009F4E8C0AE
:1044900080914102582F507FE83CF10508F0ABC0F5
:1044A000511177C0FE2C431321C092131FC0E1109D
:1044B0001DC08F70806180934102C5010E94CD1A9A
:1044C00080914102F80185838F2D61960FB6F89493
:1044D000DEBF0FBECDBFDF91CF911F910F91FF9037
:1044E000EF90DF90CF90BF90AF900895CD2829F046
:1044F000822F83238F3F09F003C180E0F82FF170F2
:10450000DF2E80FF3CC0809173024091420256E052
:10451000841315C02D873E878D859E850E9457097F
:10452000292F22952F702230F0F0243018F59F703B
:10453000F1F0F8019581907FD1F4D12C1EC090E06C
:10454000589FF001599FF00D1124ED5BFD4F6181E3
:10455000361306C06081261303C06281E6120FC0C5
:1045600001968770D5CF9F7011F0882331F3805E5C
:10457000883018F3C8010E94CD1AFD2CA5CFEE207B
:1045800009F4A2CF80914102816080934102F12C15
:104590009BCF431306C0921304C0F801EE2009F428
:1045A00079C0C8010E94C609882309F1EE20F9F0FC
:1045B00080914102803270F020913C0230913D02A6
:1045C00038872F831986DB86CA868C87CE010796AB
:1045D0000E94CD1A86E0F801ACE3B2E001900D92A2
:1045E0008A95E1F70E94B421FF24F3946DCFC801AE
:1045F0000E94CD1AF9CF51110AC08CE392E00E94BB
:10460000CD1A86E0F50111928A95E9F7C0CF4313E0
:104610000FC092130DC0E1100BC0F8018583C801D3
:104620000E94CD1A86E0F50111928A95E9F74CCFE8
:10463000C8010E94C6098823D1F2EE20C1F2809100
:104640004102803238F220913C0230913D023A839F
:1046500029831B82DD82CC828E83CE010196B8CF66
:10466000E83CF105F8F6FE2CEE2009F243131FC0DA
:1046700092131DC08091410280FD10C0982F907F41
:1046800069F0F8018583903F31F0982F907F905F1B
:104690008F70892B8583C8010E94CD1A86E0F801AE
:1046A000ACE3B2E001900D928A95E1F70DCFC8011D
:1046B0000E94C60981118ECF809141028160809352
:1046C0004102C8010E94CD1AFFCEEE2009F48FCF1F
:1046D000C8010E94C609F82E882309F488CF86E015
:1046E000F801ACE3B2E001900D928A95E1F7809178
:1046F0003C0290913D020E9457090E94B421E4CEF1
:1047000081E08E25FBCE1F93CF93DF93CDB7DEB72D
:1047100067970FB6F894DEBF0FBECDBF4B8B5C8B97
:104720006D8B7E8B8F8B6111109280021A8A198A91
:1047300085E0FE017396DE011D9601900D928A952B
:10474000E1F78091F50282FD1CC00E9431052091A5
:10475000750230917602821B930B8838934120F0CA
:104760008091770282FF7FC00E94310520918202F2
:1047700030918302821B930B8838934110F00E9482
:10478000B10886E0FE013D96DE01179601900D927C
:104790008A95E1F7CE0107960E940A22882389F0C4
:1047A00016E08091730290914202891349C0679686
:1047B0000FB6F894DEBF0FBECDBFDF91CF911F9132
:1047C000089586E0FE013796DE01119601900D9264
:1047D0008A95E1F78A859B85892B11F38F819885CE
:1047E00089238F3FE9F22091420230E0C90101960E
:1047F00087709927409173024817190671F40E9437
:104800001316109242021092730286E0ECE3F2E07B
:10481000DF011D928A95E9F7C3CF96E0929FD00100
:10482000939FB00D1124AD5BBD4FFE0131960190F9
:104830000D929A95E1F7809342020E94F608B0CF5C
:10484000819FC00111248D5B9D4F0E940A22882305
:1048500009F4ADCF8091730290E00196877099279B
:10486000809373029ECF82E00E9499157DCF1F92A4
:104870000F920FB60F9211242F933F934F935F9394
:104880006F937F938F939F93AF93BF93CF93DF9358
:10489000EF93FF93D091E900DF708091EC00C82F77
:1048A000C17080FDC0E81092E9008091F000877F20
:1048B0008093F00078940E941E161092E900809177
:1048C000F00088608093F000CD2BCF70C093E9009A
:1048D000FF91EF91DF91CF91BF91AF919F918F9118
:1048E0007F916F915F914F913F912F910F900FBEEC
:1048F0000F901F9018951F920F920FB60F921124D0
:104900002F933F934F935F936F937F938F939F93D7
:10491000AF93BF93EF93FF938091E10082FF09C0B3
:104920008091E20082FF05C08091E1008B7F80933F
:10493000E1008091DA0080FF24C08091D80080FFE0
:1049400020C08091DA008E7F8093DA008091D900B8
:1049500080FF9DC080E189BD82E189BD09B400FE70
:10496000FDCF81E08093930380918603811109C07C
:104970000E9486030E9451048091E200846080932B
:10498000E2008091E10080FF17C08091E20080FF8B
:1049900013C08091E2008E7F8093E2008091E2005C
:1049A00080618093E2008091D80080628093D8007B
:1049B00019BC85E0809393038091E10084FF2BC0B4
:1049C0008091E20084FF27C080E189BD82E189BD3A
:1049D00089B5982F917080FFFBCF8091D8008F7D93
:1049E0008093D8008091E1008F7E8093E1008091D8
:1049F000E2008F7E8093E2008091E20081608093EC
:104A0000E20080919403882309F447C084E08093F6
:104A10009303809193038091E10083FF27C08091ED
:104A2000E20083FF23C08091E100877F8093E10053
:104A300082E080939303109294038091E1008E7F33
:104A40008093E1008091E2008E7F8093E20080916C
:104A5000E20080618093E20042E060E080E00E943A
:104A60001F048091F00088608093F000FF91EF9127
:104A7000BF91AF919F918F917F916F915F914F9176
:104A80003F912F910F900FBE0F901F90189519BC5A
:104A9000109293031092860374CF8091E30087FDF8
:104AA00093E090939303B5CF78941F921FB61F9213
:104AB00011248F939F93AF93BF9380917F03909125
:104AC0008003A0918103B09182030196A11DB11DC5
:104AD00080937F0390938003A0938103B09382031C
:104AE000BF91AF919F918F911F901FBE1F901895FE
:104AF0001F921FB61F9211248F939F93AF93BF9362
:104B000080917E03811113C080917F039091800377
:104B1000A0918103B09182034196A11DB11D8093A4
:104B20007F0390938003A0938103B0938203BF918E
:104B3000AF919F918F911F901FBE1F901895CDB779
:104B4000DEB760970FB6F894DEBF0FBECDBF84B757
:104B5000877F84BF0FB6F894A89580916000886124
:104B600080936000109260000FBE80E890E00FB666
:104B7000F89480936100909361000FBE85B78068C0
:104B800085BF85B7806885BF84ED96E09093E70187
:104B90008093E6010E9486030E9451048091E20006
:104BA00084608093E2007894809193038823A1F03D
:104BB0001091E9001F709091EC00892F817090FD99
:104BC00080E8182B1092E9008091E80083FD0E9494
:104BD0001E161F701093E90082E084BD93E095BD1E
:104BE0009AEF97BD80936E001092D2021092D3027A
:104BF0001092D4021092D50287988F988FB1881F97
:104C00008827881F8093480180914801882309F4F0
:104C10009AC01092670188E0809368010E94F70DA6
:104C200081110E94182A80914801811127C086E0D5
:104C3000EDE6F1E0DE011B9601900D928A95E1F719
:104C4000FE013B96A2E4B1E0CE0141969F01419165
:104C50004D938E179F07D9F78AE0E3E7F1E0DE0175
:104C6000119601900D928A95E1F7FE013196A8E325
:104C7000B1E081918D932E173F07D9F780914801BC
:104C800096E0811190E09093EF0286E0891B80937B
:104C9000EE0202E411E0E8E4EE2EE1E0FE2ED8019F
:104CA0008D918D018F3F11F00E94D806E016F1061C
:104CB000B1F708E311E072E4E72E71E0F72EF80196
:104CC00081918F018F3F11F00E94D806E016F10606
:104CD000B1F788E1E8EFF2E0DF01282F1D922A9575
:104CE000E9F7E6EDF2E0DF011D928A95E9F7269AF1
:104CF00090E080E00E941A2C893E9E4F11F00E94A5
:104D0000411082E090E00E940C2C809310030E94DE
:104D1000850E9093F5028093F4020E94EF12EFE368
:104D2000FCE93197F1F700C000000E94EF1280917A
:104D3000F80280FF0CC06FEF7FEF90E080E00E94F0
:104D40003E2C0E94500A88E08093670165CF83E083
:104D500090E00E940C2C682F70E090E080E00E94B0
:104D60000916259A2D9882E88093800089E1809326
:104D700081008FEF9FEF90938700809386000E94C1
:104D8000C2100E94C2108091F60281113BC090E0D7
:104D900080E00E941A2C893E9E4F21F00E94411013
:104DA0000E942A1088E090E00E94142C6093720305
:104DB00070937303809374039093750380913E0303
:104DC000836080933E036E7F71F40E942A1088E016
:104DD00090E00E94142C609372037093730380938D
:104DE0007403909375030E942F060E9428068091F9
:104DF000720380FF04C060E086950E94C70F81E0C7
:104E00008093F6028091480181110CC086E980935D
:104E1000570184E98093550187E68093580186E61F
:104E20008093560149E551E065E571E0A7E5B1E001
:104E300021E030E08D91E82FE295EF70F0E0F1A0F5
:104E40008F70890101C0000F8A95EAF7902F909525
:104E50009F2191A382A1802B82A3FB018191BF019D
:104E6000E82FE295EF70F0E0F1A08F70890101C0AA
:104E7000000F8A95EAF7902F90959F2191A382A128
:104E8000802B82A34A175B07A9F68FE891E0019770
:104E9000F1F700C0000003E313E065E571E0E7E52A
:104EA000F1E02191822F82958F7090E0DC01909645
:104EB0008C9190E02F7002C0959587952A95E2F726
:104EC0008170DB019D91BD01292F22952F7030E06B
:104ED000D90190962C9130E09F7002C035952795AE
:104EE0009A95E2F790E020FD92E0892BD8018D930E
:104EF0008D014E175F07A9F68091480192E081115C
:104F000090E09093320382E0891B8093F7020E9425
:104F1000F70D811102C00E941B2A89E491E0909351
:104F20007B0380937A0350E4252E60E1662E63E0D4
:104F3000762E8091930300E112E1853009F47BC164
:104F40000E94EF1281110E942505A8EFB2E0E1E175
:104F5000F3E010E000E0A02ECD90DD9081919191E2
:104F60008C159D0509F47BC18C259D25B12CEE2463
:104F7000E394F12C970128233923232B09F469C1E9
:104F80000E94F70D8823A9F0B982AA82CE20DF20E3
:104F900081E0CD2809F480E08B830E943105816097
:104FA000782F9D838C8349815A816B818D810E94EA
:104FB0008323000F111FF801EF5EFC4F8081918168
:104FC000E826F926F182E0820E94F70D80913D03E8
:104FD000882309F464C080913C03E0917203E69554
:104FE000E81BE0933803823009F050C1F0E0E65747
:104FF000FC4FE4910E2F10E08FE9C82E8DE0D82EE3
:1050000080913903882361F0109239030E94450E84
:10501000909337038093360310923B0310923A0328
:105020000E94450EE0913603F09137039C012E1B40
:105030003F0B2F3F3F4798F520912B032223B1F0E0
:1050400010922B032091290330912A03821B930B8A
:105050008F3F9F4758F4205D3A4830932A032093AE
:10506000290380913E03886080933E03E0903A03D9
:10507000F0903B03E00FF11FF0933703E09336030A
:1050800086E393E0F601099580913A0390913B0302
:10509000892B29F4EF2819F081E080932B0300E39A
:1050A00013E085E5C82E81E0D82E97E5A92E91E082
:1050B000B92E23E3E22E23E0F22E412C312C34E0F2
:1050C000832E912CD701ED917D01EE0FEE0FD501CE
:1050D0002D915D01A22FA295AF70B0E090968C91BA
:1050E00090E02F7002C0959587952A95E2F7817020
:1050F0009927D6014D916D01A42FA295AF70B0E014
:1051000090962C9130E04F7002C0359527954A95C6
:10511000E2F7A9014170552720FF02C042E050E0AC
:10512000842BE82BD7011197EC9350903203530C4A
:10513000EF70F0E0E055FE4F8081F8019081890F1B
:10514000808320E0843064F0E52DF0E0E45DFC4FE6
:1051500080818F5F808360E0852D0E944A1A21E064
:10516000D8018C918D3F64F4E52DF0E0E45DFC4FB7
:1051700080818150808361E0852D0E944A1A21E060
:10518000F8018081082E000C990BB4010E949F2B1E
:10519000D8018D938D01422AB1E03B12D1C011F0AC
:1051A0000E94AF080E941A0E90913503891709F4E6
:1051B000C0CE809335030E94E609BBCE8091930355
:1051C000843049F180E00E947F0580E00E94E6097A
:1051D00010927E03E8E1F0E00FB6F894A895E09312
:1051E00060000FBE2092600083B7817F846083BF20
:1051F00083B7816083BF7894889583B78E7F83BFA0
:105200000FB6F894A8958091600088618093600043
:10521000109260000FBE80919203882361F00E947B
:10522000EF12E8EFF2E081919191892B09F08BC0A8
:105230006E167F06C1F780919303853009F4BECFC7
:105240000E9413160E94C2100E941A0E0E94E609C4
:1052500077CEB394EE0CFF1C2AE0B2128BCE0F5F18
:105260001F4F0C30110509F076CE8FEF8B878C879E
:105270001D860E9431058160782F9F878E874B8520
:105280005C856D858F850E9483239ECE863059F480
:10529000F0E0E957FC4FE4910E2F10E0BFE8CB2E71
:1052A000BDE0DB2EADCE893061F4E695F0E0EC5741
:1052B000FC4FE4910E2F10E0A0EECA2EACE0DA2EE7
:1052C0009FCE8F3061F4E695F0E0EF57FC4FE4910C
:1052D0000E2F10E0FEE4CF2EFCE0DF2E91CE8531C4
:1052E00059F4F0E0E258FC4FE4910E2F10E0E7ECA7
:1052F000CE2EEBE0DE2E84CE08E210E057E3C52E82
:105300005BE0D52E883109F47BCE833249F4ECE79B
:10531000F3E00591149176E3C72E7DE0D72E70CE91
:1053200004EF11E06AEFC62E6AE0D62E843209F44B
:1053300067CE00ED17E041E1C42E45E0D42E60CEEB
:1053400033243394BFCE09BD19BD09B400FEFDCF8F
:105350008091D8008F7D8093D8008091E00082609A
:105360008093E0008091E00081FDFCCF0E94131645
:1053700062CF8EE1489B02C08150E1F7489BFECF8F
:105380000895589880E28A95F1F7589A0895FC019B
:105390003BE03A95F1F798E020E080E031E040E131
:1053A0004A95F1F7880F489B02C08160232742E0AD
:1053B0004A95F1F7000040E14A95F1F7915079F7ED
:1053C00090E19A95F1F799B132E03A95F1F7000042
:1053D00040E14A95F1F7917092272081920F9083D6
:1053E0000895EF92FF920F931F93CF93DF930F9245
:1053F000CDB7DEB719828C017C01E60EF11C0E15CB
:105400001F0561F481E09981911180E00F90DF9197
:10541000CF911F910F91FF90EF9008950E94B929AD
:10542000CE0101960E94C729F80181938F01E7CF31
:10543000509A589A08955098589AE89AE9E6F0E0F8
:1054400080818C7F808308956150770B91E001C04B
:10545000990F6A95EAF720E031E0911108C0222304
:1054600091F0589A80E28A95F1F758980895492F5B
:10547000482339F0589A232740E24A95F1F7969548
:10548000ECCF5898F9CF5898EDCFFF920F931F9318
:10549000CF93DF93EC018C01060F111DC017D107CC
:1054A00031F4DF91CF911F910F91FF900895F99002
:1054B0000E94C12968E08F2D0E94242AEFCF1F92FD
:1054C0000F920FB60F9211240F931F932F933F93B8
:1054D0004F935F936F937F938F939F93AF93BF93FC
:1054E000EF93FF93CF93DF930F92CDB7DEB719827F
:1054F0000E94B929CE0101960E94C729082F06955E
:1055000006950695282F22952570902F9570290FC6
:10551000922F937026952695920F982797708981E0
:10552000982B09F05CC0083008F059C080E18A95DA
:10553000F1F7589A509A82E08A95F1F700C058988E
:1055400088E0089F80011124D801A050BF4F169613
:10555000ED91FC9117973097A9F06091AE01709191
:10556000AF0114962D913C911597260F371F119678
:105570008D919C911297680F791F13964C911397F8
:105580008C910995F801E050FF4F6381662351F03B
:105590002091AE013091AF0184819581820F931FDC
:1055A0000E94452A0E94C12980E18A95F1F7589806
:1055B0005098589A80E18A95F1F7F801E050FF4F32
:1055C0006081662351F02091AE013091AF0181815D
:1055D0009281820F931F0E94F1290E94B9290F9096
:1055E000DF91CF91FF91EF91BF91AF919F918F91FB
:1055F0007F916F915F914F913F912F911F910F91EB
:105600000F900FBE0F901F9018950F931F93CF937D
:10561000DF93EC0108970CF04CC0F894509A58981E
:1056200085E08A95F1F700009C2F969595708C2F58
:105630008570980F892F83709695969523E0CC0FEF
:10564000DD1F2A95E1F7980F8E01092B0E94C129D1
:1056500000C068E0802F0E94242A80E18A95F1F73B
:105660005098589A489B1EC087E090E048991CC00B
:10567000FE01E050FF4F63816623F9F02091AE01F7
:105680003091AF0184819581820F931F0E94F1298F
:10569000811113C0509A589A7894DF91CF911F913D
:1056A0000F91089500C0DECF019729F4509A589ABF
:1056B000789480E0F2CF00C0D9CF0E94B92980E26F
:1056C0008A95F1F75898509A80E18A95F1F7C05081
:1056D000DF4F6881662351F02091AE013091AF0118
:1056E00089819A81820F931F0E94452A0E94C129B5
:1056F000789481E0D2CFDB018F939F930E94F92BA6
:10570000BF91AF91A29F800D911DA39F900DB29F5D
:10571000900D11240895AA1BBB1B51E107C0AA1FBD
:10572000BB1FA617B70710F0A61BB70B881F991F42
:105730005A95A9F780959095BC01CD01089597FBE6
:10574000072E16F4009407D077FD09D00E948B2B0A
:1057500007FC05D03EF4909581959F4F0895709574
:1057600061957F4F0895A1E21A2EAA1BBB1BFD0174
:105770000DC0AA1FBB1FEE1FFF1FA217B307E40730
:10578000F50720F0A21BB30BE40BF50B661F771F88
:10579000881F991F1A9469F7609570958095909568
:1057A0009B01AC01BD01CF010895EE0FFF1F0590D5
:1057B000F491E02D09940E94E32B332312F48A1B09
:1057C0009B0B0C94F42BA29FB001B39FC001A39F2D
:1057D000700D811D1124911DB29F700D811D11242A
:1057E000911D08950E94E32BB7FF0895821B930B30
:1057F00008950E94E32BA59F900DB49F900DA49F48
:10580000800D911D11240895B7FF0C94F92B0E946F
:10581000F92B821B930B0895F999FECF92BD81BDA0
:10582000F89A992780B50895A6E1B0E044E050E0E9
:105830000C94462CA8E1B0E042E050E00C94462CD9
:10584000262FF999FECF92BD81BDF89A019700B439
:10585000021639F01FBA20BD0FB6F894FA9AF99AD9
:105860000FBE08950396272F0E94212C0E94202C02
:10587000252F0E94212C242F0C94212C0196272FB8
:105880000E94212C0C94202CDC01CB01FC01F99905
:10589000FECF06C0F2BDE1BDF89A319600B40D927C
:1058A00041505040B8F70895FC014150504030F04D
:1058B00001900616D1F73197CF01089588279927CF
:1058C0000895FB01DC0104C08D910190801921F441
:1058D00041505040C8F7881B990B0895FB01DC012B
:1058E00002C001900D9241505040D8F70895F894AD
:1058F000FFCF02172A17C2182A17C2185D177E1782
:10590000C2187B188818A11DA11DD91DD91DAA1E5A
:0E591000061E061E061EC61E9C1FAB1FAB1FEA
:10591E0000000001000000000000000C010000006B
:10592E00000000010D000000000000020E0000004B
:10593E000410000000000000011400000000000030
:10594E000815000000000000F4FFF0373392939525
:10595E0094FF313267349730011305230A12051F65
:10596E000A1B0A1005F6FFF5FF01191A1B1C1D1E56
:10597E001F202122010201001000101001333236C7
:10598E00349730F1F0F4F5F69592933731818283A6
:10599E00E200E900EA00B500B600B700CD008301D1
:1059AE00CC008A01920194012102230224022502D5
:1059BE00260227022A02B300B4006F007000A8026C
:1059CE0000FF0100010000FFFF0000010001FF00C9
:1059DE000001020202020606060909090909090F59
:1059EE000F0F0F0F0F151515181919191919191958
:0659FE0019191923240011
:00000001FF
